:02000002F0000C
:104000000000042071B00F0099B00F009BB00F00AA
:104010009DB00F009FB00F00A1B00F000000000086
:10402000000000000000000000000000A5450F0097
:10403000A5B00F0000000000A7B00F00394E0F0020
:104040004D4F0F00ABB00F00ABB00F00ABB00F0087
:10405000ABB00F00ABB00F00ABB00F00ABB00F00B8
:10406000ABB00F00ABB00F00ABB00F00ABB00F00A8
:10407000ABB00F00ABB00F00ABB00F00ABB00F0098
:10408000ABB00F0075730F00ABB00F00ABB00F00FB
:1040900031740F00ABB00F00694B0F00ABB00F00D5
:1040A000ABB00F00ABB00F00ABB00F00ABB00F0068
:1040B000ABB00F00ABB00F0000000000000000002C
:1040C000ABB00F00ABB00F00ABB00F00ABB00F0048
:1040D000ABB00F00ABB00F00ABB00F00DD850F0031
:1040E000ABB00F00ABB00F00ABB00F000000000092
:1040F00000000000ABB00F0000000000ABB00F00EC
:1041000000000000000000000000000000000000AF
:10411000000000000000000000000000000000009F
:10412000000000000000000000000000000000008F
:10413000000000000000000000000000000000007F
:10414000000000000000000000000000000000006F
:10415000000000000000000000000000000000005F
:10416000000000000000000000000000000000004F
:10417000000000000000000000000000000000003F
:10418000000000000000000000000000000000002F
:10419000000000000000000000000000000000001F
:1041A000000000000000000000000000000000000F
:1041B00000000000000000000000000000000000FF
:1041C00000000000000000000000000000000000EF
:1041D00000000000000000000000000000000000DF
:1041E00000000000000000000000000000000000CF
:1041F00000000000000000000000000000000000BF
:1042000010B5054C237833B9044B13B10448AFF310
:1042100000800123237010BDC48600200000000030
:10422000A8B60F0008B5034B1BB103490348AFF311
:10423000008008BD00000000C8860020A8B60F005E
:10424000A3F5803A704700BF154B002B08BF114BF8
:104250009D46FFF7F5FF00218B460F461148124A95
:10426000121A00F075F80C4B002B00D098470B4B3E
:10427000002B00D098470020002104000D000B48BF
:1042800000F016F800F040F82000290000F08AFA4B
:1042900000F014F80000080000000000000000001A
:1042A00000000420C4860020A0CE0020DD420F00C4
:1042B000002301461A46184600F09CB808B50021B4
:1042C000044600F0E3F8044B1868C36B03B1984749
:1042D000204600F03FF900BF9CB40F0038B5084BF2
:1042E000084D5B1B9C1007D0043B1D44013C55F856
:1042F00004399847002CF9D1BDE8384007F0C8B818
:10430000C4860020C086002070B50D4E0D4D761B72
:10431000B61006D0002455F8043B01349847A64255
:10432000F9D1094E094D761B07F0ACF8B61006D04E
:10433000002455F8043B01349847A642F9D170BDDA
:10434000B8860020B8860020C0860020B8860020ED
:10435000830730B548D0541E002A3FD0CAB2034666
:1043600001E0013C3AD303F8012B9D07F9D1032C5E
:104370002DD9CDB245EA05250F2C45EA054536D99C
:10438000A4F1100222F00F0C03F1200EE6444FEAD4
:10439000121C03F1100242E9045542E902551032A1
:1043A0007245F8D10CF1010214F00C0F03EB02126C
:1043B00004F00F0C13D0ACF1040323F00303043317
:1043C000134442F8045B9342FBD10CF003042CB17C
:1043D000CAB21C4403F8012B9C42FBD130BD644699
:1043E0001346002CF4D1F9E703461446BFE71A46FA
:1043F000A446E0E72DE9F8431D4D06462868984697
:104400000F46914600F0A2F81A4B1B68D3F84841BA
:104410001CB3286865681F2D24DC4EB96B1C02355F
:10442000636044F8257000F093F80020BDE8F8833D
:1044300004EB85010123C1F88890D4F88821AB40B2
:104440001A43022EC4F88821C1F80881E6D1D4F8B5
:104450008C211343C4F88C31E0E703F5A674C3F84C
:104460004841D6E700F074F84FF0FF30DEE700BFB8
:10447000288400209CB40F00024B13B10248FFF7C0
:1044800017BF704700000000DD420F002DE9F84F14
:104490002C4B2DED028B834618680F4600F056F822
:1044A000294BD3F80080D8F84861AEB108EE10BAB5
:1044B0004FF001094FF0000A7468651E0CD40134F6
:1044C00006EB840487B1D4F80031BB420CD0013D27
:1044D0006B1CA4F10404F5D1BDEC028B194B1868D8
:1044E000BDE8F84F00F034B873682268013BAB4276
:1044F0000CBF7560C4F800A0002AE8D0D6F8881177
:10450000D6F804B009FA05FC1CEA010F0BD190475C
:104510007168D8F84821594501D1B242D7D0002A54
:10452000DAD01646C8E7D6F88C31D4F880101CEAE9
:10453000030F03D118EE100A9047E9E708469047A9
:10454000E6E700BF288400209CB40F00704700BF3E
:10455000704700BFFEE700BF38B50D46E8B90968EF
:10456000C9B10F4CA1420BD0631A3B2B11D93C228D
:10457000204606F0ABFD03E0CA5CE254013BFBD2EF
:10458000074800223C2103F055FA0023A0872B6046
:1045900038BD3D23F2E70E23F9E70123F7E700BF1B
:1045A000807F0020074A6FF002039E4502D1EFF39F
:1045B000098101E0EFF308818869A0F10200007829
:1045C000104700BF59450F0038B50446A8B10D4D3E
:1045D00000223C21284603F02DFAAB8F83420ED1F6
:1045E0002A4605F13C0152F8040B44F8040B8A42B8
:1045F000F9D10133AB87002038BD0E20FCE70B203A
:10460000FAE700BF807F00200B2970B504461546ED
:1046100030D90389053300EB43030144C81AC2B201
:10462000012A27D98B4225D81946134806F04EFD9A
:104630002388522B06D1AB0711D062884CF66863F1
:104640009A420CD00F2014E034F8022B824204D09E
:10465000AE89964203F1010308D1002009E02189C7
:1046600000230A344FF6FE704FF440559942EBD8C0
:104670000B2070BD0920FCE7E186002008B5002270
:1046800003F0D8F9034B1B88834214BF0B20002092
:1046900008BD00BFE186002038B50C4C21684B1CDA
:1046A000054612D00A484FF4805206F0FFFC48B18C
:1046B00015B1206800F0A6FC054920684FF480621F
:1046C00000F0C0FC4FF0FF33236038BD2C84002085
:1046D000EC8600202DE9F041DFF84480044624F404
:1046E0007F651846D8F8003025F00F05AB420E461E
:1046F000174609D0FFF7D0FF0848C8F800504FF41C
:104700008052294606F0E2FC0448C4F30B043A4602
:1047100031462044BDE8F04106F0D8BCEC860020CC
:104720002C840020BFF34F8F0549064BCA6802F462
:10473000E0621343CB60BFF34F8F00BFFDE700BFC4
:1047400000ED00E00400FA054BDF704710DF704712
:1047500011DF704713DF704718DF704760DF704765
:1047600069DF704761DF70471FB50023CDE9013372
:104770000393684602230093FFF7EEFF05B05DF850
:1047800004FB08B54FF0E023D3F8F03DDB0700D57C
:1047900000BEFFF7C7FF0000014B1878704700BF4D
:1047A000ED9600202DE9FF484C4B40F20262C3F821
:1047B000402500F063FA00F0B5FE002000F044FB55
:1047C00000F030FF48B1052000F03EFB00F03CFF58
:1047D00000F060FF062000F037FB4FF08043DFF869
:1047E0001081D3F81C55B12D0CBF0123002388F88C
:1047F00000304AD0A5F1A8014C424C41384EDFF8B8
:10480000F49004F0010333704FF08043D3F8007448
:1048100007F00107002C3BD14E2D38D0572D36D054
:10482000304B1B681A68304B9A4200D17FBB6D2D0C
:104830002ED0122000F0B2F9044633789BBB122030
:1048400000F0ACF910B1072000F0A8F900F0010069
:10485000307000F09FFDDFF8A0B0824630B12CB977
:10486000204B1B681A68214B9A4257D04FF4405393
:104870005A684A450ABF9B684FF4905303F500738A
:104880001B685B453AD1012448E00124B6E70124C6
:104890004FF0804300226D2DC3F81C2500F0E4800A
:1048A000002CCAD1C5E70120D0E7544636E03C468B
:1048B00034E04FF480030B6071E0022000F0C4FA92
:1048C000A5F14E035842584103F08CFEAEE00022A1
:1048D0001146C1E003F0D6FEC6E000BF00A00040D4
:1048E000ED96002030840020D51A5A007E67E54EF0
:1048F000EE960020DBE5B1517CB0EE87002CC2D1F2
:10490000BAF1000FD1D0002FD1D0654B654A1B689A
:1049100065481A60654B43F0010398474FF44053D4
:104920005A684A4508BF9B685D4A0CBF03F500738F
:104930004FF49053126819685D4B594518BF002316
:1049400013601CB9BAF1000F40F08E803378002B51
:10495000B3D0082000F078FA98F800300BB9FFF7D0
:1049600003FF01234FF4742088F80030FFF7F2FEB4
:10497000504B51491868019001A8FFF7E7FE4F49D5
:1049800091F81623EC2352091341DA0707D54C4B53
:104990009A68002A8DD01A6842F480021A600C22AC
:1049A000484B029300210DEB0200FFF7D1FC40F2CF
:1049B0000113029A039303A94020FFF7D1FE0C22B2
:1049C00000210DEB0200FFF7C3FC9DF80C30029AAA
:1049D00043F0010303A9A0208DF80C30FFF7C0FEBF
:1049E0000C2200210DEB0200FFF7B2FC0124F7239B
:1049F000029AADF80E3003A923208DF80C40FFF782
:104A0000AFFE0C2200210DEB0200FFF7A1FC0623F4
:104A1000029A8DF80C4003A920208DF80E40ADF8C5
:104A20001030FFF79DFE02A8FFF798FE4FF44053A9
:104A300030785A684A450ABF9B684FF4905303F593
:104A400000731B685B4504D0572D02D04E2D7FF4B8
:104A50003EAF012240F6B83100F07CFD3378002BE8
:104A60003FF438AFFFF774FE00F082F900F092FCDB
:104A7000A0B100F0D7FD88B94FF440535B684B45B7
:104A800006D198F800300BB9FFF76EFEFFF760FE15
:104A9000034B1B6800221A6000F098FDFFF742FEEE
:104AA00030840020D51A5A000048E801B0B40F0045
:104AB0007E67E54EA0B40F0083470F0000E100E0E1
:104AC0003C9D00200080002010B5FEB04FF4FA732A
:104AD000ADF802300DF10201002301A8ADF8043059
:104AE000FFF740FE044640B9BDF80430102B07D054
:104AF000112B0CD001A801F05FF820467EB010BD4C
:104B0000054B01221A70072000F09EF9F2E7024BD4
:104B100018700820F8E700BFEC96002013B50023BA
:104B200001A80193FFF710FE044660B9019802F056
:104B3000D7FA019B0A2B09D0092B09D00B2B02D1E4
:104B4000012004F09DFB204602B010BD2046F8E78E
:104B50000220F6E708B5FFF7B7FF0528FBD1FFF7FE
:104B6000DDFF0528F7D108BD0021024A084602F002
:104B700083BE00BF554B0F001F2884BF00F01F00ED
:104B8000044B054A98BF4FF0A04300F5E07043F88E
:104B900020207047000300500C0003001F288ABF2C
:104BA000064B4FF0A04300F01F00D3F8103523FA56
:104BB00000F0C04300F00100704700BF0003005048
:104BC00000234FF0FF328360C0F80035C0F8602545
:104BD000C0F86425C0F86825C0F86C2540F2FF32A3
:104BE000C0F80435C0F80825C0F80C35C0F81035F9
:104BF000C0F81435C0F82035C0F8243570470000DF
:104C00001B4B00221F2930B5C3F800258BBF01F0D4
:104C10001F030B46174A4FF0A04203F5E07403252B
:104C200042F82450012404FA03F3C2F80C3500F5CD
:104C3000AC700F4B002243F82010FF21C3F804256D
:104C40000220C3F808150421C3F80C15C3F8100599
:104C50000948C3F81425C3F82005C3F82415C3F880
:104C60002825C3F82C25C3F80045C3F8102130BD12
:104C700000C0014000030050E498002038B54FF018
:104C8000804301240025DC601220C3F818559C6085
:104C9000FFF772FF0720FFF76FFF2C4B4FF4C85050
:104CA0002343984716212846FFF7AAFF4FF0102309
:104CB000D3F8043303F00703052B25D0244AC2F8A8
:104CC0000445D2F80034002BFBD04FF01021D1F86E
:104CD000043323F0070343F00503C1F80433002332
:104CE000C2F804351A4AD2F80034002BFBD0BFF3C7
:104CF0004F8F1849184BCA6802F4E0621343CB6027
:104D0000BFF34F8F00BFFDE7144A1E21082002F0B9
:104D10008FFD08B102F046FE02F0F0FC0D49104B89
:104D2000E02081F823001B684FF47A72B3FBF2F3A2
:104D3000013BB3F1807F08D24FF0E02253610023A2
:104D400081F8230093610723136138BDC0B40F00BD
:104D500000E0014000ED00E00400FA05F0960020BC
:104D6000348400200148FFF72BBF00BF00C0014082
:104D70004FF0E023002110B51961FFF7F3FF144B4A
:104D8000144C4FF40032C3F8802003F1C04303F504
:104D90003C534FF48032C3F84823C3F80823012260
:104DA0005A609A604FF080430220DA600B461F2B56
:104DB0001A46C6BF03F01F0221464FF0A04102F57C
:104DC000E0720133302B41F82200F0D110BD00BF5A
:104DD00000E100E000030050074B23F81010074BE0
:104DE000002282B0C3F81021D3F810210192019A59
:104DF00001229A6002B07047E498002000C0014090
:104E00000B4A0C4B11681B68B1FBF3F203FB121148
:104E1000B1EB530F4FEA530288BF591A4F2359433E
:104E2000B1FBF2F1C1F1FF0189B20020FFF7D4BF5D
:104E3000E0980020EC980020024A136801331360C8
:104E4000FFF7DEBFE09800201B490A68082823D836
:104E5000DFE800F013051322221A1E242A00174B44
:104E600040F6B83018604FF47F4303F0103323F05E
:104E700080539A4218BF0B607047104B4FF49670E6
:104E800018604FF47F03F0E70C4B64221A60704700
:104E90000A4B40F6B83018601346E6E7074B40F679
:104EA000B8301860FF23E0E7044B4FF496701860A9
:104EB0004FF0FF13D9E700BFF0980020EC980020D6
:104EC00000F1804382B01A68002A14BF012000203C
:104ED00004D000221A601B680193019B02B0704746
:104EE0000F4A1378D3B903784FF08041C3F34003DE
:104EF000C1F88035037803F00103C1F87835094B18
:104F00001968C90706D4E02183F800130121C3F80A
:104F100080111960012304481370704703487047DB
:104F20000099002000E100E00000AD0B0C00AD0B8B
:104F3000014B02681A607047FC9800204FF08043D4
:104F40004FF46072C3F804237047000010B54FF0AF
:104F50008043D3F80443620707D54FF48470FFF70A
:104F6000AFFF10B11E4B1B689847A30608D54FF43E
:104F70008A70FFF7A5FF18B11A4B00201B689847ED
:104F8000600608D54FF48C70FFF79AFF18B1154BE7
:104F900001201B689847210608D54FF48E70FFF753
:104FA0008FFF18B1104B00201B689847E20508D509
:104FB0004FF49070FFF784FF18B10B4B01201B6872
:104FC0009847A3050AD54FF49270FFF779FF28B1EF
:104FD000054BBDE810401B680220184710BD00BFFC
:104FE000F4980020F8980020FC980020044AD2F899
:104FF0000034DB07FBD50160BFF35F8F704700BF54
:1050000000E001404FF080531A69B0FBF2F302FB5D
:10501000130373B9084B0222C3F80425C3F808052B
:10502000D3F80024D207FBD500220448C3F8042596
:1050300070470348704700BF00E001400000AD0B1F
:105040000A00AD0BF8B50B4B1546012206460F467C
:10505000C3F804250024A54204D1064B0022C3F85E
:105060000425F8BD57F8241006EB8400FFF7BEFFB7
:105070000134F0E700E00140BFF34F8F0549064BD4
:10508000CA6802F4E0621343CB60BFF34F8F00BFE6
:10509000FDE700BF00ED00E00400FA054FF080538B
:1050A000D3F83021082A06D1D3F83431032B02D8A3
:1050B000024AD05C70470020704700BFC6B40F00A2
:1050C00008B54FF08053D3F83021082A4ED14FF065
:1050D00080420021C2F80C11C2F81011C2F8381534
:1050E00002F54042D3F80414C2F82015D3F808148E
:1050F000C2F82415D3F80C14C2F82815D3F81014EC
:10510000C2F82C15D3F81414C2F83015D3F81814BB
:10511000C2F83415D3F81C14C2F84015D3F8201483
:10512000C2F84415D3F82414C2F84815D3F828144B
:10513000C2F84C15D3F82C14C2F85015D3F830141B
:10514000C2F85415D3F83414C2F86015D3F83814E3
:10515000C2F86415D3F83C14C2F86815D3F84014AB
:10516000C2F86C15D3F84434C2F87035FFF796FFD7
:1051700018B1494B494AC3F88C26FFF78FFF18B185
:10518000474BFB22C3F81825FFF788FF70B14FF09B
:1051900080414FF08053D1F8E42ED3F8583222F0FA
:1051A0000F0203F00F031343C1F8E43EFFF776FF4D
:1051B00020B13C4B4FF40072C3F840264FF08053AF
:1051C000D3F83031082B09D14FF08043D3F80024B5
:1051D000D10744BF6FF00102C3F80024324AD2F86D
:1051E000883043F47003C2F88830BFF34F8FBFF3A9
:1051F0006F8F4FF01023D3F80C22D2071DD52B4B05
:105200000122C3F80425D3F80024002AFBD04FF074
:105210001022D2F80C3223F00103C2F80C32234BD7
:10522000D3F80024002AFBD00022C3F80425D3F8C9
:105230000024002AFBD0FFF71FFFD3F80022002A2A
:1052400003DBD3F80432002B22DA184B0122C3F817
:105250000425D3F80024002AFBD04FF0102212219D
:10526000C2F80012D3F80024002AFBD04FF010231C
:105270001222C3F804220D4BD3F80024002AFBD0DD
:105280000022C3F80425D3F80024002AFBD0D2E77B
:10529000074B084A1A6008BD0050004048810300CF
:1052A00000F000400090024000ED00E000E001400E
:1052B000348400200090D00313DF704718DF70475C
:1052C000064B10461A78012A03D1012904BF022295
:1052D0001A7008B102F066BB704700BF3199002018
:1052E00008B5FFF759FA88B111481C2101F084FF75
:1052F00008B102F057FB0F490D4800231C2201F0B2
:105300006BFF98B1BDE8084002F04CBB4FF47F2022
:10531000FFF778FE072207494FF47F20FFF792FE40
:10532000054B1A78012A04BF02221A7008BD00BF7B
:1053300028990020349900203199002070B5124C32
:10534000124D134ED4F800347BB1C4F80056C4F8A3
:105350000456C4F80856C4F80C56C4F81056C4F8DD
:105360001456C4F81856C4F81C5602F0EDFA05F0AD
:105370007CFE20B104F03CFD002005F023F93378D9
:10538000023B022BDED870BD000001403546526E54
:105390003199002013B54FF44053124A5968914295
:1053A0000CBF9C684FF4805401A800F0A1F9236859
:1053B000013302D16368013311D0019B1A88012A9D
:1053C0000DD1588820B199680022204602F032FBA6
:1053D000019B5B881B1A5842584102B010BD002047
:1053E000FBE700BFDBE5B15184B02DE9F34108AC28
:1053F00084E80F009DF82040BDF8228001A80F46E8
:1054000016461D4600F074F984B9354B0122FF2180
:10541000A3F802809D601A809980324B1A70FFF7C2
:105420005FFF02B0BDE8F04104B07047013C052CBD
:10543000F7D8DFE804F0032315483951284BBA198F
:105440002A449A60A5221A80C3E90376FF229A8033
:105450000C9AA3F802805D619A61224B0122DDE77C
:10546000019A1F4B11881980518892689A60AA226C
:10547000C3E9037659809A805D61EEE7019A184B83
:105480001188A5290AD100229A60FF221A60FF2202
:105490009A800022C3E903225A61DEE7198051880D
:1054A000926859809A60F2E7FFF776F940B100F010
:1054B0008FFD08B102F076FA0A4B03221A70B0E7AA
:1054C00000F00CFAF5E7064B00229A60FF221A6002
:1054D000019A92889A80A2E7024B0422EEE700BF6D
:1054E000349900203199002000B50C4B1B7889B00D
:1054F00063B90B4B1B786BB905238DF80C30079BF8
:10550000009303AB0FCBFFF76FFF03E004F06CFADF
:105510000028EED009B05DF804FB00BF30990020F0
:10552000249900201FB50023CDE90233074B0193D6
:1055300001F022FE30B906494FF47F2301A84B60E9
:1055400001F038FE05B05DF804FB00BFC1520F004A
:105550002899002070B505460E460AB180F0010278
:10556000154B02F001021A7000F0ACFF044628B996
:1055700035B100F089FC0446FFF7E0FE204670BD1F
:10558000BEB10E4B0E4A0F481D70294602F0E6F8D8
:105590004FF400444FF4FA7029464FF47A72002316
:1055A000E6FB040105F016FE2A460146064802F015
:1055B000E7F800F06FF9DEE7309900202499002029
:1055C000E9540F00CCB40F00049900201FB5134B11
:1055D0004FF0FF32C3F88020C3F880214FF44053CE
:1055E0000F4A596891420DD19C682046FFF764FE2E
:1055F00010B14FF000531C60204604B0BDE81040CD
:1056000000F09AB80023CDE902334FF4805406230A
:105610006846CDE90034FFF751FEE9E700E100E01C
:10562000DBE5B15107B501A800F062F8019B1A88CB
:10563000A52A07D09888A0F1AA035842584103B080
:105640005DF804FB0120FAE710B501F059F9A8B1A3
:105650000E4B0F4843F00103984701F0BBF808B127
:1056600002F0A0F901F04CF908B102F09BF901F049
:10567000FDF8044638B102F095F904E001F01AF99A
:1056800004460028E4D1204610BD00BFD0B40F006E
:1056900000A8610000B589B003AB142200211846B0
:1056A000FEF756FE02228DF80C20002200920FC851
:1056B000FFF79AFEFFF742FE002009B05DF804FBF9
:1056C00013B5044601A800F013F8019B1A88228044
:1056D0005A8862809A68A2609A88A280DA68E2603A
:1056E0001A6922615A6962619B69A36102B010BDA7
:1056F000014B0360704700BF00F00F00F0B5034698
:10570000186880F308885868FF2464B2EFF30585B1
:10571000002D01D1A64600472546064621273FBA5F
:10572000F0B40024002500260027F0B4F92040B290
:10573000004700BFF0BD00BFFFF7E0BF73B5002317
:105740000DF1020101A8ADF80230019302F0ACFDA9
:10575000F8B9019C25785DB3174B93F83020032AE4
:1057600028D00C2606FB00F29958E9B998189D50EC
:1057700093F830200132D2B283F83020BDF80230E5
:105780000E4A9B08013B043443608460084602F0E3
:1057900073F8019B33B128B1184602F0A1FD08B19E
:1057A00002F000F902B070BD01300428DAD1F0E750
:1057B0000720EEE70420ECE75099002005580F0081
:1057C000084609B102F0EEB87047000010B50C228F
:1057D0000B4B504319181A588C687AB193F8302043
:1057E000013AD2B283F8302000221A50C1E90122D6
:1057F000201F02F075FD08B102F0D4F8002010BDA2
:1058000050990020214B70B50122214E1A7096F854
:10581000303003B970BD1E4C0025236883B1013BB5
:10582000042B07D8DFE803F01C06120328002046EB
:1058300000F0DAFEE8B2FFF7C9FF08B102F0B2F8F3
:105840000135042D04F10C04E7D1E0E7A36863609F
:10585000204600F06DFE0028ECD002F0A3F8E9E746
:10586000204600F04FFF00F02BFF08B102F09AF83D
:105870000520FFF7E9FADDE700F070FF00F08EFF8A
:10588000BDE870400620FFF7DFBA00BF2499002072
:105890005099002008B50E4B002283F830200421D7
:1058A0000139C3E901221A6003F10C03F8D1094858
:1058B00000F038FE02F090FC08B102F073F80648E0
:1058C00002F076FC08B102F06DF8002008BD00BFC0
:1058D00050990020C1570F003D570F0008B5002018
:1058E000FFF774FF0120FFF771FF0220FFF76EFF43
:1058F0000320FFF76BFFBDE8084002F0B5BC00686D
:1059000070476CDF70476DDF70476EDF70476FDF89
:10591000704772DF704773DF704774DF704776DF60
:10592000704777DF70477ADF70477CDF70477FDF33
:10593000704786DF70478FDF704790DF7047AFDFBB
:105940007047B0DF7047B1DF7047B2DF7047B5DF37
:10595000704764DF704766DF70470C2813D8DFE8B4
:1059600000F014121212121209120712120D0B007B
:10597000022070470320704704207047042914BF99
:10598000062005207047062070470120704702F06E
:1059900009B810B5044608460321FFF7DEFF0246AA
:1059A000204601F067F918B1BDE8104001F0FABFD8
:1059B00010BD00000346032B10B50846144620D046
:1059C000042B23D169B1124B18884FF6FF7398420C
:1059D0001CD01321FFF7A3FFC0B1BDE8104001F0B8
:1059E000E1BF104602F080F808B101F0DBFF094B7F
:1059F0001B689C420AD101220321074801F03AF9B1
:105A0000EAE70121FFF7A9FF0246F6E710BD00BF54
:105A10003A840020449A0020F4990020F8B50A4DF9
:105A2000AB889E181D2E14460DDC2F68FE1802F15F
:105A3000010C07F803C07070B01C05F047FBAB8881
:105A400002331A19AA80F8BDA4990020F0B54E4E71
:105A5000317895B0002940F092804C4C0191102291
:105A60002046FEF775FC4A4B0199236018220EA8C8
:105A7000FEF76EFC01238DF8383028231093454B38
:105A80001B78002B7DD0444B04AC03F11005186843
:105A90005968224603C20833AB421446F7D13F4C43
:105AA00010220DEB0201E01D05F000FB002868D07C
:105AB0003B4801210460FFF728FF08B101F072FFA5
:105AC000384B08AA03F1100C174618685968154698
:105AD00003C5083363452A46F7D120680C90324845
:105AE000A288A379ADF834200760012200218DF847
:105AF0003630FFF70CFF08B101F054FF03238DF897
:105B00004C3004238DF80E3041F23053ADF8103094
:105B1000264B08AA9B798DF812300DF10F0104A8CD
:105B2000FFF717FF012210460DF10E01FFF776FF78
:105B30001F4805F002FB1E49C2B20920FFF76EFFA5
:105B4000102208A90620FFF769FF104919480EAA7C
:105B5000FFF7DFFE08B101F025FF164C0422217883
:105B60000120FFF7DEFE08B101F01CFF20780121C3
:105B7000FFF7D1FE08B101F015FF0123337015B016
:105B8000F0BD0623BEE700BF289A0020A49900209C
:105B900084990020F099002007B50F00B4990020E7
:105BA000409A0020BB990020249A0020F4990020FC
:105BB000D6B40F0038840020F0B504460146B1B0D9
:105BC000A74801F08BF82388262B3BD80F2B04D84D
:105BD000012B00F0CC8031B0F0BD103B162BFAD871
:105BE00001A252F823F000BF715C0F007F5C0F0030
:105BF000D75B0F00B15C0F00AB5D0F00D75B0F00F0
:105C0000D75B0F00D75B0F00D75B0F00D75B0F0090
:105C1000C75D0F00D75B0F00D75B0F00D75B0F008E
:105C2000D75B0F00D75B0F00D75B0F003D5E0F0007
:105C3000D75B0F002F5E0F00D75B0F00D75B0F0005
:105C4000315D0F00513B9AB2052AC4D8052BC2D84A
:105C500001A252F823F000BF7B5D0F00C75D0F006B
:105C6000D75B0F00D75B0F004F5E0F00175D0F0073
:105C70007C4BA2881A807C4B00221A70ABE78023F1
:105C8000784CADF82430794B208832221A6010A964
:105C9000012309AAFFF759FE08B101F083FE744BF6
:105CA0001B780BB9FFF7D2FE4FF6FF73238092E704
:105CB000704B03AC9A79186899888DF82220079068
:105CC000DA1DADF8201017332646106851682546B6
:105CD00003C508329A422C46F7D1674B09AA03F153
:105CE0001807154618685968144603C40833BB42A0
:105CF0002246F7D1186820605A48604A008810ABE5
:105D00008521CDE91456FFF712FE00283FF463AF5A
:105D100001F048FE5FE7A379002B7FF45CAF514BA5
:105D200013211888FFF7FBFD00283FF454AF79E0FA
:105D3000237A012B7FF44FAF4B4B00221A704B4B51
:105D400019680139196069B910AB14221846FEF7B9
:105D5000FFFA05228DF84020149A00920FC8FFF731
:105D600043FB38E731B0BDE8F040FFF76FBE3D4B75
:105D700000211888FFF7EFFDD6E7A379002B3FF449
:105D80002AAFA27B043A022A3FF625AF022B18BFA6
:105D900001238DF840304FF4C173ADF84430314BDE
:105DA00010A91888FFF7CDFDAFE7324A258A508D3C
:105DB00002F118010023854218BF19460732A08856
:105DC000FFF7B7FDB0E7274B1C884FF6FF75AC42D5
:105DD00027D02B4B1B78F3B12A49012308222046F8
:105DE000FFF7B1FDF0B90246014602232046FFF756
:105DF000AAFDB8B92A460C212046FFF7A0FDA0F560
:105E00004053023B012B7FF6E6AE08283FF4E3AE99
:105E1000112889D1DFE61A4619462046FFF793FD7F
:105E200082E7082031B0BDE8F04001F0BBBD0D4B6A
:105E3000002218881146FFF780FD75E70023ADF8B2
:105E40004030084B10A91888FFF775FDC3E6E188BC
:105E5000044BF729188828BFF721FFF778FD63E77F
:105E6000F49900203A840020289A00203C840020E5
:105E70003B9A0020B4990020CC990020369A00204B
:105E8000F0990020E899002030B5434A43480023A8
:105E90001370434A95B0137000F044FB01F0E4FD29
:105EA0000446002861D13F48FEF78EFB00285FD1F1
:105EB0003D4B01221A7011233C488DF8043005F047
:105EC0003CF93A4982B201A8FFF72FFD08B101F071
:105ED00069FD0822002104A8FEF73AFA344A4FF07F
:105EE000C87304A8CDE90423FFF71DFD08B101F034
:105EF00059FD00210C2201A8FEF72AFA0823ADF86B
:105F000004302C4B02932C482C4B039301A900F036
:105F100035FD08B101F046FD294D4022002104A8BD
:105F2000FEF716FA284605F008F90595254DADF857
:105F30001000284605F001F90795234DADF818002B
:105F4000284605F0FAF81123ADF8300004A8ADF8A2
:105F50004C300D9500F0D6FF1C4B30221A700722F2
:105F60005A7010229A70FFF771FD204615B030BDAF
:105F700004A8FFF7C8FC08B101F014FD9DF811302A
:105F800004A801338DF81130FFF7BBFC002892D034
:105F900001F008FD8FE700BF3B9A0020B5590F00C4
:105FA000359A0020B4990020F0990020D6B40F0053
:105FB0000800180021600F00F49900208F590F008D
:105FC000DDB40F00E3B40F00EAB40F00369A0020EE
:105FD00010B50F4B01221A700E4B18884FF6FF7345
:105FE000984207D01321FFF79AFC08B101F0DAFCC0
:105FF000002010BD084C2378002BF9D0074B1878EF
:10600000FFF78BFC08B101F0CDFC00232370EFE714
:106010003B9A00203A840020289A002038840020EF
:10602000F0B50B7889B005460C46092B35D8DFE86A
:1060300013F02D00360041000A0019002600070168
:1060400010014400150100F089FB0421FFF785FCD5
:106050000246284600F00EFEF8B109B0BDE8F04057
:1060600001F0A0BCFFF7B4FF08B101F09BFC00F009
:1060700095FB90B109B0BDE8F04000F09DBBFFF783
:10608000A7FF0028F6D001F08DFCF3E7764B012244
:106090001A704B681A78754B1A7009B0F0BD724BC4
:1060A00002261E704B681B78012BF6D100F008FB0E
:1060B0003146CBE76C4B0322EEE70520FEF7C4FE2A
:1060C000694B1E78022E37D0032E59D0012EE4D111
:1060D00004AB102218460021FEF73AF9634A237AEE
:1060E00012788DF81020002203920C2B4FF003023F
:1060F000CDE9012008D03146284600F0BBFD00283C
:10610000CBD001F04FFCC8E763681846FFF7F7FBF8
:106110000590181DFFF7F3FB069003F10800FFF749
:10612000EEFB079001A800F003FA0028B5D0314635
:10613000FFF713FC0246DFE7237A13F0030011D0C8
:10614000C0F104021A44D2B219464FF0000C0E46B8
:1061500001316768C9B2914207F806C0F7D11B1A2E
:10616000043323720123049363680693237A04A8FB
:106170009B08059300F0C6FA00288ED00221D7E7CD
:10618000207A830702D03246314662E7384E0190CA
:10619000314601F07FFC014618B12846FFF7F9FBB4
:1061A0007BE76168019A306804F090FF019801F084
:1061B000D7FC01460028F0D101A9304601F0E0FCEF
:1061C00001460028E9D104230493019B9B08059311
:1061D00004A83368069300F007FA074640B9254A39
:1061E000237A11680B441360234B32681A6054E71A
:1061F00009281BD11F4B217A1A68114419601F4BC3
:106200001B78002B3FF449AF1D4C2388013B9BB208
:106210002380002B7FF441AF284600F0F1FC08B149
:1062200001F0C0FB174B1B88238036E7306801F074
:106230005BFC014610B12846FFF7ABFB3946ACE7E3
:106240000E4B01221A700F4A8B8813800C4A138060
:1062500023E70A4A002313700A4AF8E7054B196836
:1062600000F092FCF8E600BF359A00203C9A00202E
:10627000489A00202C9A0020449A0020349A00204A
:10628000329A0020309A002018DF7047012973B538
:1062900014460D461A4608D0032912D014B32046DE
:1062A00002B0BDE8704001F07DBB0F4B1B78052BA1
:1062B000F4D10E4B1B68002BF0D0214604209847E8
:1062C000ECE7094E3378022BE8D1094B01925B6869
:1062D0009847064B35701B68002BDFD0019A21468A
:1062E0002846ECE702B070BD549A00204C9A00207A
:1062F000589A002030B589B003AC14220021204602
:10630000FEF726F8094B1B88ADF80E30084BDB680A
:1063100006930025079B8DF80C50009394E80F001E
:10632000FFF762F8284609B030BD00BF649A00202C
:10633000B09A002000B589B003238DF80C300A4BC9
:106340001B88ADF80E30094B5A6804929A68DB68D6
:106350000693079B0093059203AB0FCBFFF744F81E
:10636000002009B05DF804FB649A0020B09A002078
:1063700000B589B001238DF80C300F4B0F4A1B88F4
:10638000ADF80E304FF440535968914208BF9A68F7
:106390000B4B5968049118BF4FF480529968DB6821
:1063A00006930591009203AB0FCBFFF71DF8002079
:1063B00009B05DF804FB00BF649A0020DBE5B15131
:1063C000B09A002000B589B003AB14220021184612
:1063D000FDF7BEFF04228DF80C20002200920FC8AA
:1063E000FFF702F809B05DF804FB0000194BF7B5A0
:1063F000194C1C60194B02221A70FEF7CDF9184B8C
:1064000048B11968204600F0F7FE00B303B0BDE8BC
:10641000F04001F0C7BA1D68124F013D2D0B013548
:1064200004464FF440567368BB420CBFB0684FF44B
:10643000805000EB04300134FEF7E4FDA542F2D8B1
:106440000023054800931A460321FFF71FFF03B0FE
:10645000F0BD00BFC89A0020C09A0020549A0020C6
:10646000689A0020DBE5B15170B50C4686B0032177
:10647000CDE902100546960802A8019304940596FA
:10648000FFF702FFE0B1B4F5805F019B11D8012353
:1064900002A8CDE90235CDE90446FFF7F5FE78B94B
:1064A000032302A8CDE90235CDE90446FFF7ECFE4F
:1064B00006E01A46E11AE81AFFF7D6FF0028E6D0F0
:1064C00006B070BD1FB5104B0193104B104900244E
:1064D0001C70104B01A8CDE902441C8000F06AFE3C
:1064E00070B94FF440530C4A59689142084A0CBFA6
:1064F0009B684FF480535360084B00221A600124BC
:10650000074B1C7004B010BD8D620F00AC9A0020C8
:10651000C09A0020649A0020DBE5B151509A002017
:10652000549A0020014B1860704700BF4C9A00201D
:1065300038B54368224C0FCB84E80F002378590705
:1065400001D59A0735D16068850732D1A2689107D5
:106550002FD1E16811F003042BD1104408441949EC
:10656000B2F5204F086026D84FF4405216495568BE
:106570008D420ABF92684FF46922C2F56A229042A6
:1065800019D8DA0713D4114A13F0020F104B18BFB1
:106590001346104A104911601049C2E90113104B0B
:1065A0001B78012B09D1FFF721FF204638BD0D4B89
:1065B000EFE70624F9E70C24F7E70824F5E700BF26
:1065C000B09A0020689A0020DBE5B15135630F00D6
:1065D000F5620F00589A0020ED630F00C5630F00AD
:1065E000549A002071630F002DE9F04385B0002814
:1065F00053D0816811F0030451D12C4B1B78052B2B
:106600004FD12B4E42683368DFF8AC9003EB820326
:106610009500D9F80020934207D94FF0FF3333603B
:106620000C24204605B0BDE8F0830391FEF7B4F8D2
:10663000DFF88880039940B13368D8F800002A4613
:1066400000F0CAFDD8B10446EBE74FF44053194AB5
:1066500058683768904208BF9868039118BF4FF494
:10666000805000232A463844FEF734F80399D8F8BE
:10667000000000950B4600220121FFF707FE33685A
:106680001D44D9F8003035609D420CD1FEF784F8E6
:106690000028C6D1FEF700F8C3E70E24C1E7102496
:1066A000BFE70824BDE70924BBE700BF549A0020D8
:1066B000509A0020DBE5B151689A0020C89A00206A
:1066C00070B50B4B1D6885B90A4E3378042B0CD17D
:1066D000094C0A4B21781A780948FDF795FF10B943
:1066E0000523337070BD2570FCE70820FAE700BF72
:1066F000509A0020549A0020AC9A0020B09A0020B2
:106700006C9A0020F8B5114B1A78032A03D0042A9A
:1067100003D0082416E004221A700D4B1C68002CCC
:10672000F7D10C4D43682F789E0007EB8303402B75
:106730000AD8816808483246384404F0C7FC2B78F0
:1067400033442B702046F8BD0924FBE7549A0020FF
:10675000509A0020AC9A00206C9A002010B50B4C87
:106760002378052B10D10A4B0A4A1B6811689942FD
:106770000AD106232370084B1B685868FDF77EFF7B
:1067800008B90723237010BD0820FCE7549A0020A5
:10679000689A0020509A0020C89A0020044B1B7869
:1067A000072B02D1034B9B6818470820704700BF96
:1067B000549A0020589A002000B589B006238DF81D
:1067C0000C30079B009303AB0FCBFEF70DFE09B017
:1067D0005DF804FBF0B58DB005A8FEF771FF089CCD
:1067E000002C3ED00B9E04F58053B3422DD91E4D94
:1067F000A6F5805305EA53054FF440539B689C422D
:106800000BD869002B46A4EB450201F5805106EB3D
:106810004500FFF729FE0DB0F0BD05F580530127B7
:1068200001A8CDE90173CDE90337FFF72DFD00285D
:10683000F1D14FF4805301A8CDE9023301970497B9
:10684000FFF722FD0028E6D1DBE70123CDE9013681
:10685000A4084FF4805301A803930494FFF714FD98
:10686000D9E72046D7E700BF00F0FFFF00B58DB0A5
:1068700005A8FEF725FF099880B1089B8BB94FF456
:1068800040530B4A596891420ED19B688008002200
:10689000039001A8CDE90123FFF7F6FC0DB05DF8E8
:1068A00004FB0B9A1344F1E74FF48053EEE700BF6B
:1068B000DBE5B15100B58DB005A8FEF701FF0998E1
:1068C00098B1089BA3B94FF440530C4A59689142C0
:1068D00011D19B680393800803214FF47422049024
:1068E00001A8CDE90112FFF7CFFC0DB05DF804FB64
:1068F0000B9A1344EEE74FF48053EBE7DBE5B1511D
:1069000010B58CB005A8FEF7DBFE0898B8B10B9C5B
:1069100000F58053A34214D94FF440539B6898422A
:106920001BD80F4BA4F5805203EA52035900A0EB89
:10693000430201F5805104EB4300FFF795FD0CB0D5
:1069400010BD800803224FF48053049001A8CDE9C4
:1069500001230394FFF798FCF1E70E20EFE700BF57
:1069600000F0FFFFA8DF7047AADF7047ADDF704778
:10697000AEDF7047B0DF704762DF70472DE9F04748
:106980000E4694B00546002800F0F880002900F07B
:10699000F5804B68002B00F0F1804FF6FF73038009
:1069A000774B04AA03F1100C17461868596814466F
:1069B00003C4083363452246F7D141F230530DF149
:1069C0000A0138460293FFF7D7FF0446002840F03B
:1069D000D1802A1D02A90120FFF7C4FF0446002828
:1069E00040F0C8809DF80A30AB7101461C220DA80A
:1069F000FDF7AEFC9DF834300E9443F004038DF89F
:106A0000343001AFAB798DF80E30214641F232536C
:106A100003223846CDE91044CDE91244ADF80C30DC
:106A2000FDF796FC9DF8063023F01F0343F00303A7
:106A3000214614224FF4885A08A88DF80630ADF884
:106A400004A00DF10C08FDF783FC4FF01409A88891
:106A50000A9405F1080308AA0DA90C94CDE908874A
:106A6000ADF82C90FFF780FF0446002840F08280AC
:106A700001461C220DA8FDF76BFC9DF834300E94E6
:106A800023F0180343F018038DF83430AB798DF8F8
:106A90000E30214641F2315303223846CDE91044ED
:106AA000CDE91244ADF80C30FDF752FC9DF80630EC
:106AB000ADF804A023F01F0343F0130321464A4618
:106AC00008A88DF80630FDF743FC1723ADF82C30ED
:106AD000A8880A9405F1100308AA0DA90C94CDE921
:106AE0000887FFF741FF0446002843D101461C22D6
:106AF0000DA8FDF72DFC9DF834300E9443F00203F1
:106B00008DF83430AB798DF80E30214641F2345394
:106B100003223846CDE91044CDE91244ADF80C30DB
:106B2000FDF716FC1123ADF804309DF8063023F074
:106B30001F0343F0030321464A4608A88DF8063098
:106B4000FDF706FC02230A93ADF82C30A8880C96BA
:106B500005F1200308AA0DA9CDE90887FFF704FF76
:106B6000044638B97368AB62B36803B1EB62054B96
:106B700001221A70204614B0BDE8F0870E24F9E710
:106B800017B50F00CC9A002070B5054686B070B3DB
:106B900002884FF6FF739A422BD0174B1B7843B3F2
:106BA000164C1022080AE170207121FA02F0090E39
:106BB000072301266071A17102A800216370ADF85E
:106BC00006302270A670FDF7C3FB2B8AADF80830A3
:106BD0000023ADF80C3028888DF80A600DF106030B
:106BE00002A9CDE90434FFF7C3FE06B070BD0E2044
:106BF000FBE70820F9E700BFCC9A0020CD9A0020DF
:106C000030B5044687B060B302884FF6FF739A42EE
:106C100029D0164B1B7833B3154D11232B700B0A5B
:106C20006970AB700B0C090EEB7029710523002104
:106C3000102202A8ADF80630FDF78AFB238AADF8D2
:106C4000083001238DF80A300023ADF80C3020887D
:106C50000DF1060302A9CDE90435FFF789FE07B05F
:106C600030BD0E20FBE70820F9E700BFCC9A0020DA
:106C7000CD9A002030B5044687B038B300884FF66F
:106C8000FF73984224D0134B1B780BB3124D102383
:106C900069700321ADF80610AA7000211A4602A8F7
:106CA0002B70FDF755FB238AADF8083001238DF8D2
:106CB0000A300023ADF80C3020880DF1060302A93C
:106CC000CDE90435FFF754FE07B030BD0E20FBE7D9
:106CD0000820F9E7CC9A0020CD9A002070B50D4627
:106CE00088B0044650B149B1826A3AB10B88502B42
:106CF00049D005D8102B43D0112B54D008B070BD0B
:106D0000512BFBD18E79022EF8D10A89038A9A423F
:106D1000F4D18B7B043B022BF0D99DF816308DF813
:106D2000106043F001038DF816300B8AADF818306F
:106D30004B8AADF81A30082201F1140301A8002192
:106D40000793FDF705FBA18A2088019601AACDF8DB
:106D500008D0FFF70BFE48B3E36A03B1984740F24F
:106D6000FD132088ADF8143004A9FFF703FE0028B6
:106D7000C4D0E36A002BC1D008B0BDE8704018470A
:106D80008B882380BAE7C98803899942B6D1082342
:106D90008DF81030123535F8023C8DF81830059515
:106DA00004A99047AAE74FF6FF73EAE7BDF8003061
:106DB0002088DB07D3D5002604A9ADF81460FFF7BF
:106DC000D9FD0028D5D1297D4B1E072B3ED8DFE801
:106DD00003F004192226282A3B2C6B8A8DF80460C4
:106DE000012B05D8062201212046FFF743FFBEE70D
:106DF000012315358DF80C300295A36A01A92046B0
:106E000098477BE76A8A01239A428DF80430F0D8CC
:106E100006220221E8E702238DF80430EDE7032380
:106E2000FAE70423F8E70523F6E76B8A022B02D87A
:106E300003220821D8E7B5F81530ADF80830002B4B
:106E40000CBF07230623E7E70923E5E70322CBE787
:106E5000A8DF7047AADF70472DE9F04180468EB069
:106E600015461F460E4611B9084600F09BFD15B9A0
:106E7000284600F097FD1C220DEB02000021FDF7D3
:106E800067FA9DF81C30ADF80480002443F002033B
:106E90008DF81C3021460123032268468DF8063008
:106EA000CDE90A44CDE90C440894FDF751FA3B784A
:106EB0008DF800307B788DF801309DF8023023F09A
:106EC0001F0343F002032146142202A88DF802306A
:106ED000FDF73EFA0A48CDF80CD001AB029302AAA6
:106EE000149B0088ADF8105007A9ADF81240ADF81A
:106EF00014500696FFF7AEFF0EB0BDE8F08100BF5C
:106F0000F49A002030B587B041F60A032B4AADF859
:106F10000C30044603A901208DF80E00FFF798FFFE
:106F20000546D8B92288E2B922894AB1244B009398
:106F3000E16804F13C0342F62420FFF78DFFD8B945
:106F4000228C4AB11F4B0093616A04F13C0342F664
:106F50002620FFF781FF78B9A36B7BB9284607B0DD
:106F600030BD194B0093616804F13C0342F62920BF
:106F7000FFF772FF0028D7D00546EFE71A788DF8A3
:106F800010205A888DF81120120A8DF812209A8844
:106F9000DB888DF815301B0A8DF813208DF816301C
:106FA000120A0A4B8DF814200093072204F13C03C7
:106FB00004A942F65020FFF74FFFDDE7F49A0020C6
:106FC000E49A0020D49A0020DC9A0020EC9A002059
:106FD00029DF704728DF7047064B182202FB00307C
:106FE00000230422C0E90423037183608361C3602A
:106FF000704700BF089B002023B502460846C968B9
:1070000043680093044B53F82150436910F80C1B5C
:10701000A84702B020BD00BFF89A002038B5194C2F
:107020002378182202FB03431A795869012A03D0F6
:10703000032A1AD00F2038BD134A996915689A6837
:10704000DB68A2EB0532B2F5805F184401EB053135
:1070500000EB053034BF92084FF48062FFF7B8FFB1
:107060000028E8D10123A370E5E74FF080531B69A6
:107070009BB2B0FBF3F0044B1B681844FFF7AAFF68
:10708000EEE700BF089B0020009C002070B5134D68
:107090006C780A2C1FD02E783444E4B2092C84BFBB
:1070A0000A3CE4B2182606FB0454A261207103C90D
:1070B000A360049BE360AB7804F1100282E8030054
:1070C00023B100206B7801336B7070BDFFF7A6FF12
:1070D0001128F7D1F5E70420F7E700BF089B00204F
:1070E00070B5234CA3782BB100260228A67002D0DD
:1070F000032836D070BD25781E4A182101FB0541B2
:10710000136889680133B1EB033F136014D86378C7
:107110001660013B63706B1CDBB21821092B01FB6D
:10712000054188BFA5F10903002004312370FFF752
:1071300063FF2846FFF750FF6378002BDAD0A3786F
:10714000002BD7D1FFF76AFF0028D3D01128D1D068
:107150002178182303FB01410431BDE87040FFF79B
:107160004BBF2378182202FB034104310D20F4E7C2
:10717000089B0020009C002008B50A4B00211960E4
:10718000094B1980997008460131FFF725FF0A293C
:10719000F9D1064B00201860054BC3E90000C3E994
:1071A000020008BD009C0020089B0020FC9B0020E2
:1071B000F89A0020064A1368042B07D00B60591C6C
:1071C0001160044A016842F82310002318467047F2
:1071D000FC9B0020F89A002013B5CC180C43A407A0
:1071E00008D1009313460A4601460120FFF74EFFDF
:1071F00002B010BD1020FBE707B500220B4600923D
:1072000001460320FFF742FF03B05DF804FB0000D6
:10721000094B5A7899780132D2B2914208BF0022C4
:10722000197891421FBF02705A78182101FB023071
:1072300014BF043000207047049C0020082910B5BA
:10724000044602D0002000F0ADFBD4E90030BDE8D8
:107250001040184773B5054600240DF107000E468F
:107260008DF8074000F0ACFB0DF10600FFF7D0FFF2
:1072700090B10670094B9DF8062045605A709DF844
:10728000070000F0C1FB24B9054B4FF48012C3F88E
:107290000021204602B070BD0424F0E7049C0020C9
:1072A00000E100E0204B21491A682F2300BF00BFF6
:1072B00000BF00BF00BF00BF00BF00BF8A422FD089
:1072C00000BF00BF00BF00BF00BF00BF00BF00BFC6
:1072D00000BF00BF00BF00BF00BF00BF00BF00BFB6
:1072E00000BF00BF00BF00BF00BF00BF00BF00BFA6
:1072F00000BF00BF00BF00BF00BF00BF00BF00BF96
:1073000000BF00BF00BF00BF00BF00BF00BF00BF85
:1073100000BF00BF00BF00BF00BF00BF00BF00BF75
:10732000013BC3D1704700BF348400200024F40027
:107330000C4B0D484FF4003210B5C3F880200124E7
:107340004FF48033C0F84833C0F808334460FFF787
:10735000A9FF064B846000201860FFF7A3FF044BD1
:10736000187010BD00E100E000100140209D0020D9
:10737000119D00202DE9F3412549264B0025C1F838
:107380004051C1F84451C1F84851C1F84C51C1F8BD
:107390000051C1F804511B68002B34D0D1F80445CA
:1073A0001D49DFF888800968641A24F07F442F465D
:1073B0001968A14212D81A7CDE69641A0D4462B1C0
:1073C0005A691F7400929B690193424608216846DE
:1073D00000F052FA08B100F0E5FABEB90F4A104BBE
:1073E00011781B788B4205D10133DBB2022B08BF29
:1073F0000023137012780B4B43F822500A4B4FF4C2
:107400008012C3F8002102B0BDE8F0813346CFE717
:1074100000100140249D0020209D00201D9D002083
:107420001C9D0020149D002000E100E03D720F0033
:107430002DE9F74FA64AA74913780978A64C994237
:107440003BD00133DBB2022B08BF00231370A349EA
:107450001278A34B0F6853F822003B1823F07F43A8
:1074600000220B60236815461646944613B942B1B4
:10747000236006E0196881420DD902B12360091A20
:10748000196001262368DFF8609200930027BDB9D8
:10749000DFF860A266E0401A0E44D968D3F81CE019
:1074A000C3F800C031B1BA1922F07F42C3E901210B
:1074B000DD611D4673460122D8E700252E46E1E72F
:1074C0002846ED69854BD0F804C01A68DFF828E239
:1074D0008368ACEB020121F07F41714500F2AB8083
:1074E0000B4401210174216803600022C0E90122DC
:1074F000C261002940F0A8802060C8E75A1C9AF8B1
:107500000210D4F800B0D2B2914208BF00228AF82B
:107510000020182202FB03A31A799868022A77D068
:10752000032A00F08580012A1CD190F810C0BCF11C
:10753000000F17D1D96841601A6982605A69C26028
:107540009B698361674B1B78002B18BF61464160C4
:10755000B8E7904200F09C809046D269002AF8D1AA
:10756000002303749AF800309AF801209A42C5D19A
:10757000236827B9009A9A4201D1002E42D0002BED
:1075800000F08380D3F80090574C544BD4F8046536
:107590001868564F351A3B7825F07F4503359BB95F
:1075A0004FF48033C4F84433C4F80433504B4FF4E1
:1075B00000324FF00108C3F880211A60C4F800803F
:1075C000FFF770FE87F80080A9452CBF484440199A
:1075D00020F07F40C4F84005D4F804359B1B23F00D
:1075E0007F43801B033320F07F4083420AD9D4F8C5
:1075F0000435C4F84035FFF755FE3D4B4FF40032DB
:10760000C3F80021374B00221A7003B0BDE8F08F99
:107610005A46D846A2E78BF81020DBF81CB00123AD
:10762000BBF1000FF7D1002B9CD0C4F800B099E754
:1076300000231A46F4E7A2EB0C0222F07F429A42A2
:1076400034BF9B1A00234CE70A689A421BD3D21A14
:107650000A60C16150E7A3EB0C03D2F81CC01146CD
:10766000BCF1000F0AD06246D2F800C09C45F2D3AC
:10767000ACEB030CC2F800C094460A460360C0F8A5
:107680001CC0D06103E70A46EEE7FFF751FEB9E7F9
:10769000404510D1DBF81C30236063B9DFF83CE0D3
:1076A00001920121C9F80810CEF800300D4B197075
:1076B000FFF7F8FD019A1368D269C8F81C2012B1CF
:1076C00011680B44136023685B4518BF012747E727
:1076D0001C9D00201D9D0020249D0020209D002039
:1076E000149D0020109D002000100140119D0020DD
:1076F00000E100E0049C0020FEFF7F0008B5FFF7DA
:1077000017FE104B00200B2218809A700E4B186049
:107710000E4B18700E4B18700E4B4FF48012E02178
:10772000C3F8802183F814131A6002F18042A2F595
:107730006F22C2F8080583F81113074BD2F804250D
:107740001A6008BD049C0020249D00201C9D002080
:107750001D9D002000E100E0209D0020074B9B784C
:107760004BB132B128B10368187C20B959745A6101
:107770007047072070470820704700BF049C002016
:107780002DE9F743DFF8848098F8023005460E466D
:107790001746ABB3A0B3042930D9436983B3437C04
:1077A0000024012B0DF107000CBF8946A1468DF87E
:1077B000074000F005F90DF10600FFF729FDD8B1EB
:1077C000012303700F4B4560D3F80435C0E90497DB
:1077D000C0E902369DF8063088F801309DF80700B0
:1077E00000F012F924B9084B4FF48012C3F80021BD
:1077F000204603B0BDE8F0830424EFE70724F7E751
:107800000824F5E70010014000E100E0049C00209E
:10781000064A92783AB130B1426922B1002202742C
:107820000221FFF717BD0820704700BF049C00200D
:107830004B1C30B5DB00044612F003009BB20DD1A7
:10784000074D2A601A44074B1A60074B1870074B04
:107850001870074B1C80074B198030BD0720FCE7D0
:10786000309D00202C9D0020289D0020389D002068
:10787000349D0020369D00202DE9F347DFF8C080BD
:10788000B8F800308B4206460D4617464CD300240C
:107890000DF107008DF8074000F092F8244B254ABF
:1078A00025481B78008892F800C084455FFA8CF167
:1078B00038BF0131DBB238BFCCB2A3422ED014782E
:1078C0001178CBB2884286BF0133DBB2002313703C
:1078D0009DF8070000F098F84FF6FF739C4225D002
:1078E000DFF86090D9F800304FEAC40A43F83470EA
:1078F00003EBC402AEB1A5B1104BB8F800001B6891
:107900002A4604FB0030314603F0E0FBD9F8003092
:10791000534400209D8002B0BDE8F0874FF6FF740D
:10792000D6E700209080F6E70920F4E70420F2E78C
:10793000389D0020289D0020369D00202C9D002091
:10794000349D0020309D002070B5104C104D2278E1
:107950002B789A4200D170BD0E480F4A23781268E6
:1079600006880E4802EBC301006852F8332089886C
:1079700003FB060090470A4922780988D3B2914256
:1079800086BF0133DBB200232370E0E7389D00207F
:10799000289D0020349D0020309D00202C9D00203B
:1079A000369D00201FB50021CDE9021001AA44F246
:1079B0000100ADF80410FCF7E4FE05B05DF804FB2F
:1079C00070B5EFF3108672B60C4A9468012384B93F
:1079D00093600B4B0B4DD3F8801029401160C3F816
:1079E0008050D3F8841051604FF0FF32C3F88420E8
:1079F0002346037006B962B670BD00BF3C9D0020EF
:107A000000E100E0FC06FFBD10B5084B9A685AB1D2
:107A100050B9EFF3108172B6054A1C6814605C68B7
:107A20005460986001B962B610BD00BF3C9D002053
:107A300000E100E02AB113880144884204D11846CD
:107A400070474FF6FF73F7E710F8012B5BBA9BB254
:107A50005340C3F303125A4082EA0232530103F443
:107A6000FF5392B25340E8E7064B074A00201870D4
:107A7000064B1A600822C3E90120C3E90300C3E9E9
:107A800005007047489D00204C9D00202CB0002030
:107A90000020704730B5F1B1124B5C6800220A60DB
:107AA000DCB1B0F5167F1AD8D868013C01305C60B3
:107AB000D8601C6818694FF4177505FB00440C600A
:107AC000996901248440013000F0070021431861C6
:107AD0009961104630BD0E20FCE70420FAE70C2027
:107AE000F8E700BF2CB00020F0B51C498A6892B3BB
:107AF0004D690E68AC1A04F0070423464FF417775B
:107B000007FB036C604510D1886901259D406840E2
:107B1000886100204E68D1F818C04FF0010E734400
:107B20000025164403F007030AE0013303F00703BE
:107B30009D42E5D11020EDE74AB1013A1C460125EE
:107B40000EFA04F414EA0C0FA6EB0207F4D00DB100
:107B5000C1E90172F0BD0420FCE700BF2CB0002099
:107B6000064A13691268013B4FF4177103F00703CB
:107B700001FB0323C3F85802002070472CB00020FB
:107B800030B5C0B1B9B10E4BDA68B2B1013ADA60C2
:107B90009A681C6801329A605A694FF4177505FBA0
:107BA000024404600132D4F85802086002F007026F
:107BB0005A61002030BD0E20FCE70420FAE700BF28
:107BC0002CB000203FB40C49086890B10B4B1C68E6
:107BD0007CB10B4A1568CDE9025000238DF80430C2
:107BE0000B60136004AB13E90700234604B030BCFC
:107BF000184704B030BC704750B0002054B000208B
:107C000060B00020DC2810B509D0DD2810D0C028D5
:107C100016D1FFF7D7FF0E4B0E4A1A6010BD0E4A61
:107C20000E4B19681368581C1060C022CA54F2E742
:107C3000094A0A4B19681368581C1060DB22F5E7E3
:107C4000064B054A196813685C1CC8541460E2E7C7
:107C500040840020757C0F0050B0002060B00020F0
:107C6000C02802BF014B024A1A60704740840020BE
:107C7000757C0F00C02810B409D0DB280BD0094B4D
:107C8000094A196813685C1CC854146006E05DF862
:107C9000044BFFF797BF054B054A1A605DF8044B8C
:107CA000704700BF60B0002050B00020408400202A
:107CB000057C0F0007B501228DF807000DF10701C3
:107CC000002002F0BFFCB0FA80F04009800003B051
:107CD0005DF804FB10B5064A064C12682368D05CB8
:107CE000FFF7E8FF10B923680133236010BD00BF20
:107CF00064B0002058B0002008B5C020FFF7DAFFBC
:107D000028B9034B1B6813B9024B034A1A6008BD1C
:107D100058B0002044840020D57C0F0008B5DB203B
:107D2000FFF7C8FF10B9024B024A1A6008BD00BF36
:107D300044840020397D0F0010B50C4A0C4C1268A9
:107D40002368D35CC02B03D0DB2B0DD0042010BDE7
:107D5000DC20FFF7AFFF0028F9D12368054A013383
:107D60002360054B1A60F2E7DD20F2E764B00020E3
:107D700058B00020D57C0F00448400207FB5184CFB
:107D8000184D194E002002F0FDFB30B322689AB165
:107D90002968336899420FD2012201A9002002F01C
:107DA000FDFB10B94FF0FF3001E09DF804000F4BD0
:107DB000C0B21B689847E5E70D4B1B686BB1029298
:107DC000084A0221126803928DF8041004AA12E9ED
:107DD000070004B0BDE87040184704B070BD00BF94
:107DE00060B0002050B000204CB000204084002043
:107DF00054B00020014B18600020704754B00020A0
:107E0000034B1A780AB901221A700020704700BF8C
:107E100048B00020014B00201870704748B0002087
:107E20002DE9F04F85B0002851D02A4F3B78012B27
:107E300007D0022B14BF08240424204605B0BDE857
:107E4000F08F254DDFF8A090244E254CDFF89C8064
:107E5000DFF89CA0DFF89CB0C9F8001000232B606D
:107E6000022330603B70C4F800802A68D9F80030E3
:107E70009A4215D3C4F80080FFF73EFF044608BBC2
:107E8000184B1B6801223A70E3B18DF80420326868
:107E900002922A68039204AA12E907009847CCE7E5
:107EA00033682A689A5CC02A03D02A689B5CDB2B63
:107EB00004D12368534508BFC4F800B0236898472D
:107EC000042801D10024B8E71128CED1FAE7102404
:107ED000B3E700BF48B0002058B0002064B00020D5
:107EE0004484002054B000205CB00020F97C0F00D6
:107EF000D57C0F001D7D0F00054B064A1860064B10
:107F00001960064B00201860054B1A60704700BFCF
:107F100060B00020617C0F004CB0002050B0002009
:107F200040840020064B07481B68DB00DBB20022C0
:107F300003705B4242708270C3700421FFF770BF10
:107F400090B0002068B0002070B52B4C2B4D02463D
:107F50002378012B14D0022B21D0002B4BD1002AE7
:107F600049D12748FFF754FC08B1FFF71BFD254B0B
:107F70001B68002B3FD0244ABDE87040107818479A
:107F8000012A38D12968214B06311868FFF748FFCC
:107F900008B1FFF707FD022323700022D8E7022A69
:107FA00016D0032A0CD032BB194B15481A6041F683
:107FB0007F21FFF7E5FBF0B1BDE87040FFF7F2BCB1
:107FC000144A1368013303F0070313600023E3E747
:107FD0000F4A1368052B0AD001331360074B196849
:107FE0000A4BBDE8704018680631FFF719BF064B11
:107FF00001221A70EAE770BDB4B00020A8B00020DA
:108000006CB00020A4B00020ACB00020BCB00020B8
:10801000B0B0002094B00020F0B585B004AB03E907
:1080200007009DF804000D461646032871D8DFE8C6
:1080300000F008029EA1012005B0BDE8F040FFF766
:1080400083BF032A514C7ED94B7813F00F0265D0C1
:108050000E2A78D1042E55D00A78500652D5110632
:1080600050D51A44AB781A44EB781A4412F0FF0248
:1080700048D1B71E39462846FFF7DCFCEB5B83424C
:1080800040D143492A780B6802F00702D8B28242F5
:108090002BD1013303F007030B60FFF743FF3D4B88
:1080A000012230461A70FFF75BFD08B1FFF77AFC3A
:1080B00036494FF41670FFF7EDFC002860D0042815
:1080C00002D00020FFF76EFC33480521FFF714FFB4
:1080D00008B1FFF767FC314B1B68002B54D04FF001
:1080E000000005B0BDE8F040184720684FF4167155
:1080F000FFF702FF08B1FFF755FC05B0BDE8F040FF
:10810000FFF710BF20684FF41671FFF7F5FE002847
:108110003AD005B0BDE8F040FFF744BC0A78897852
:1081200013440B44E9780B44DBB263B91C4B1B6866
:10813000013383EAD20313F0070304D1194A032061
:108140001370FFF701FF25681DB14FF41671284623
:10815000DBE70E494FF41670FFF79CFC60B1042872
:1081600002D02846FFF71EFC0B480521CDE70A4840
:108170000521CAE70320CCE720684FF41671C4E755
:1081800020684FF41671A1E705B0F0BDB8B000202B
:1081900090B000208CB0002098B00020A0B000204B
:1081A00094B00020ACB000200220FFF7CDBE00004C
:1081B000074B10B5044618600648FFF71BFE08B1D0
:1081C000FFF7F0FB002C0CBF0E20002010BD00BFFD
:1081D000A0B0002019800F00184A1948002310B5DC
:1081E0001360184A1360184A1360184A1370184A2B
:1081F0001370184B184A01211960184B1960184B5D
:108200001970FFF7ABFA08B1032010BDFFF72CFC83
:108210000028FAD1FFF7F4FD0028F6D1114C4FF4F5
:1082200016702146FFF736FC0028EDD120684FF488
:108230001671BDE81040FFF75FBE00BFBCB0002064
:1082400028B50F00A8B00020B0B000208CB00020EE
:10825000B4B0002090B00020A9810F0094B000209D
:10826000ACB00020B8B000200C4A08B50023136061
:108270000B4A1360FFF70CFC08B1FFF793FBFFF705
:10828000C9FD08B1FFF78EFB0648FFF7C1FA0428C5
:1082900002D10020FFF786FB002008BDA4B000201B
:1082A000A0B000206CB0002037B50D46044698B150
:1082B00091B10A4B19780022019259B101A91A70A3
:1082C000FFF75EFC019B063B2B8023680433236091
:1082D00003B030BD0420FBE70E20F9E78CB000208E
:1082E0000438FFF701BC18DF70470000F0B51D46E9
:1082F000154B87B018680F4659681B7A03AC03C446
:108300002370124B18685968114B009301AC03C4D9
:108310002046164602F011FF21460246384602F07A
:10832000D5FE01A802F009FF01A90246304602F07D
:10833000CDFE684602F001FF69460246284602F07B
:10834000C5FE07B0F0BD00BF2CB50F0035B50F005E
:10835000312E30000120704710B51C460B781E2BC3
:108360000AD000232022052102F084FB4FF6FF7083
:10837000A04228BF204610BD0020F9E7F8B5069FAF
:1083800014460D463A46002118461E46FBF7E0FF0C
:108390007CB14FF0E023D3F8F03DDB0700D500BE01
:1083A0004FF0FF300AE0284600F0F6F9013504F5F9
:1083B0000074BC4206EB0401F5D32046F8BD000072
:1083C000F8B50A4F0D461E460024069B9C4206EB5C
:1083D000040101D32046F8BD3A46284600F0B2FA1F
:1083E0000028F7D0013504F50074EEE7C0B0002096
:1083F00030B5264D2A7A8DB09AB107AC14220021EF
:1084000020460625FBF7A4FF8DF81C500B9B00931C
:1084100094E80F00FCF7E8FF0620FCF715FD0DB00F
:1084200030BD2B68002BFAD0194B197819B10520F3
:108430001A70FCF709FDD5E900329A42EFD307AC78
:10844000142200212046FBF783FF6B7ADBB1062361
:108450004FF420424FF474214FF460208DF81C300B
:1084600002F024FE0028D1D01022002103A8FBF73F
:108470006FFF4FF460224FF4205303A8CDE904238B
:10848000FFF731FFC2E78DF81C30BFE7C0B0002016
:1084900048840020024B0B604FF400731380704738
:1084A000090101000120704700487047F684002050
:1084B000044B054A1878054B002814BF104618468F
:1084C000704700BFDCB20020AB840020498400204C
:1084D0002DE9FF411E4B187020B11E4B02229A72EB
:1084E0000022DA721C4A1D4DDFF878C017461C4B7B
:1084F000EE4603F11006744618685968F046A8E87D
:1085000003000833B342C646F6D12B7803F00F03BD
:1085100010336B4413F8103CD373114B186859682F
:10852000A646AEE803000833B3427446F6D115F808
:10853000013B04A901EB1313654513F8103C937339
:10854000A2F10202D3D100233B7404B0BDE8F08154
:10855000DCB20020F684002060B300206000001030
:108560003DB50F006800001010B570B9134B1448EA
:108570001968022202F0AAFD01230133DBB211487F
:108580005B0043F44073038010BD052814D80B4BE7
:1085900053F82040204602F0D0FDC3B21F2B28BF65
:1085A0001F23084A2046E118884202F10202E4D063
:1085B00010F8014B1480F7E70020E5E7088500205C
:1085C000E0B20020DEB200204DDF70474EDF704782
:1085D0004FDF704750DF704712DF7047002000F018
:1085E000DBBC00001FB5244B402283F82723002367
:1085F0008DF807304FF4405304465A681F4B9A4297
:1086000027D10DF10700FFF7E7FF9DF8073003B30F
:108610000120FFF7DBFF0120FFF7D6FF0120FFF766
:10862000D7FF02A8FFF7D6FF029BDA0702D500208A
:1086300000F026FE029B9B0702D5022000F020FEE0
:108640002046FFF745FF00F027F802F001FD04B0D7
:1086500010BD002301A88DF80430FCF741FC084B45
:10866000039303A8FCF764FCFCF768FC4FF080431D
:10867000D3F838340293D7E700E100E0DBE5B151ED
:1086800081920F00012000F0FBBD0120FCF7DCBB54
:108690000220FCF7D9BB00007FB52F492F4802F01C
:1086A0003DFD4FF440532E4A596891424CD11A78FF
:1086B000102A46D9142A186944D95B69294CB3FB9E
:1086C000F4F50A2201A904FB153402F081FD2649C4
:1086D000224802F023FD01A9204802F01FFD234992
:1086E0001E4802F01BFD0A2201A9284602F070FD77
:1086F00001A91A4802F012FD1D49184802F00EFDAA
:108700004FF47A760A2201A9B4FBF6F5284602F066
:108710005FFD01A9114802F001FD15490F4802F063
:10872000FDFC0A2201A906FB154002F051FD01A93A
:108730000A4802F0F3FC0F49084802F0EFFC04B0CD
:1087400070BD00200023B9E70B49044804B0BDE820
:10875000704002F0E3BC00BF5BB50F002085002035
:10876000DBE5B15140420F0068B50F0066B50F0060
:108770006AB50F0075B50F006CB50F0010B5034654
:108780001C1A944200DB10BD0C781CB1013103F8B7
:10879000014BF5E72024FAE72DE9F3410C460546A5
:1087A0004FF4007200212046FBF7D2FD6DB95E49FF
:1087B0003E22204602F08AFC552384F8FE31AA238B
:1087C00084F8FF3102B0BDE8F081B5F5017F2DD806
:1087D0006B1EB3F5817F24BF6FF4817805EB08032E
:1087E000CBB11A02C3EBC35304EB432302F58075EC
:1087F00040F69364111FB1F5696F02F1010106D2D1
:10880000A24214BF88B24FF6FF7023F812008D42C7
:108810000A46EFD1D6E7F822227004F10901224678
:10882000FF2002F8010F8A42FBD1DAE7B5F5027F9B
:108830003BD86FF4017C65443DB920463B490B228F
:10884000FFF79CFF2823E3722034394B2E014FF0B1
:10885000000803EB05256C27022EB3D80B2229460E
:108860002046FFF78BFF532356226FF04F016374AE
:10887000E3746376B31C84F80D80A773E1732274EC
:10888000A27484F8148084F81580A775E1752276A7
:108890006383E86830B102F050FCE06101362034B7
:1088A0001035D9E74FF4E910F7E7224B9D4289D8FC
:1088B0006FF40277EA19012A0FD81D4B03EB02135C
:1088C000D9680191084602F038FC01990246204619
:1088D00002B0BDE8F04102F0F9BB6FF4FD76A919D2
:1088E0000902B1F5801FBFF46DAF134B236003F194
:1088F000144303F52C1303F6023363600F4BC4F8E3
:10890000FC314FF46963A3614FF40053A5F20B25CA
:108910004FF48072A3600A4B6561E1602261E361FC
:1089200004F12000D4E700BF78B50F00A3B50F0015
:1089300020B60F00080101005546320A306FB10A17
:1089400002003036F7B5654B14460A689A420D4668
:1089500039D103F114434A6803F52C1303F60233AB
:108960009A4230D1D1F8FC215D4B9A422BD18B68D1
:1089700023F4FF5323F01E039B049B0CB3F5005F0D
:1089800021D10B69B3F5807F1DD1C86810F0FF06B7
:1089900019D1CB69534A934205D0534A934215D01B
:1089A000524A93420FD1A0F58053B3F5692F07D2F5
:1089B00001234FF4807205F12001FBF78BFE22E0CA
:1089C000B0F5805F1FD34FF0FF3021E001276772C1
:1089D000CB68B3F1102F1DD104223431684602F068
:1089E00075FB042205F138010DEB020002F06EFB6D
:1089F000009BB3F5742F03D1019BB3F57E2F01D0FB
:108A00002772E0E7A772AB69002B37D14FF40070F3
:108A100003B0F0BDA3F57422B2F5204F28D2E27A5C
:108A200001F12007DAB9324A934218D32B69B342D5
:108A300015D90422B919684602F048FB009BD02BD7
:108A400014D10422311D0DEB0200394402F03EFB2B
:108A5000264B019A9A424FF001030DD1E372E86868
:108A60002A6901233946A0F5A030A6E70836DDE7DC
:108A7000B3F5805FC7D301232372A4E72268934232
:108A800007D041F263018B4200D80AB14FF0FF33A7
:108A900023606B6941F263029342B7D803F0070287
:108AA00004EBD303012191401A7B1142C8B204D1D7
:108AB0006168024301311A736160D4E900329A425D
:108AC000A4D30120FBF7E8FD637A002B9ED0A37AA4
:108AD000002B9BD10123237298E700BF5546320A31
:108AE000306FB10A4028A5AD3C8263D60200303613
:108AF00000D80F004FF08053D3F83001082802D17E
:108B0000D3F8343123B9A0F10D03584258417047CE
:108B10000120704742DF704743DF704744DF7047F2
:108B200012DF704770B4234C94F8D830014683B3F9
:108B3000214B5B68C3F3080323B170BC1F480122BB
:108B400001F02EB8EFF310828ABB1D4B5A68C2F3B6
:108B5000C01312062BD594F8D830002BFBD118E0A7
:108B6000D6F82C31D6F8502100201344820002F1AF
:108B7000804202F51C320130D2F80851D2F830217F
:108B800008282A441344F1D194F8D820DBB29A4241
:108B9000E6D894F8D8300133DBB284F8D83001231A
:108BA0000B60BFF36F8FBFF34F8F70BC7047054EE4
:108BB000EAE700BF74B3002000ED00E0258B0F0052
:108BC00000E100E000700240082870B5184B194E13
:108BD000044618D1D3F8C054EA0327D4D6F8C020ED
:108BE0001548C3F8A027C3F8A457FFF79BFF182325
:108BF0005C43321933592B443351D38815FA83F32C
:108C00009BB2D38070BD00F59472142153F82250AA
:108C10001822424301FB00330848B258C3F800272A
:108C2000EDB2C3F8045700EB8400DEE70025DEE771
:108C30000070024074B30020487002402870024067
:108C400010B41049182303FB00114A8A0B8ACC6820
:108C50009B1A8A8A9BB2934228BF1346142242432E
:108C600002F1804202F51C32C2F80046C2F8043616
:108C70001C44054BCC605DF8044B03EB8000FFF710
:108C800051BF00BF74B300200470024007B54FF419
:108C9000405300205A68084B9A420AD18DF80700C9
:108CA0000DF10700FFF73CFF9DF80700003818BFE3
:108CB000012003B05DF804FBDBE5B15107B5FFF718
:108CC000E5FF58B1002301A80193FFF727FF0198A2
:108CD000003818BF012003B05DF804FB4FF080435B
:108CE000D3F80C0400F00110A0F1011358425841D0
:108CF000F1E7000008B5FFF715FF054A92F8D830F4
:108D00002BB192F8D830013BDBB282F8D83008BDE5
:108D100074B3002070470000014B80225A607047F6
:108D200000E100E0024B8022C3F88420704700BFBE
:108D300000E100E0074BD3F80014D3F800240A4305
:108D4000C3F800240022C3F858214FF48002C3F86E
:108D5000042370470070024070B58A784E793E4C0B
:108D600002F07F0318200C25D209584305FB0200AE
:108D70000D79204406F0070645EA06250581C978E5
:108D800001F00301012922D00120344900FA03F443
:108D90009AB903F10C05A840C1F80403D1F81405F1
:108DA00003F594732043C1F8140541F82320BFF361
:108DB0006F8FBFF34F8F012014E002339840C1F84A
:108DC0000403D1F810352343C1F81035EFE7082B21
:108DD00009D04FF0E023D3F8F00D10F0010001D0DE
:108DE00000BE002070BD1D4BDAB9B4F8D42012B11A
:108DF0008022C3F81C250022C3F85021D3F8002399
:108E000012F4001208BFC3F85421144B4FF440125F
:108E1000C3F80423D3F8142542F48072C3F8142550
:108E2000C5E70022C3F82C21B4F8C82012B1802273
:108E3000C3F81C25D3F8002312F4001208BFC3F8AE
:108E40005421064B064AC3F80423D3F8102542F4F4
:108E50008072C3F81025AAE774B3002000700240A6
:108E600000082000F7B51F4601F07F0018231F4CB3
:108E7000CD090E4643430C2101FB053104EB010CE7
:108E800062500022ACF80470ACF8062018B1F5B1BD
:108E9000FFF7D6FE18E017BB154BD3F88034C3F3A9
:108EA000C0139D421BD01348FFF724FF124B5B6891
:108EB000C3F30803003B18BF012300933A463B4627
:108EC0003146384600F057FE012003B0F0BD1C4487
:108ED000A37A002BF8D0A572FFF776FEF4E7002DF9
:108EE000D6D10648FFF706FFEEE700BF74B30020B7
:108EF000007002405070024000ED00E04C700240F3
:108F000011F07F0307D1084B01225A65BFF36F8F21
:108F1000BFF34F8F7047082B1EBF034B41F4807186
:108F2000C3F81815F2E700BF0070024011F0770F88
:108F300010D0094B41F48072C3F81815C3F80C2502
:108F4000CA0904BF01F5947143F82120BFF36F8F64
:108F5000BFF34F8F704700BF0070024010B5002272
:108F60001146930003F1804303F51C330132082AB4
:108F700059609962F5D1064B064C5962DC2299641E
:108F800020460021FBF7E4F94023A382238110BD92
:108F90000070024074B300202DE9F04FB14BB24A8B
:108FA000D3F80013002385B01C4601201D4621FA8A
:108FB00003F6F6070BD552F8236046B100FA03F624
:108FC000344342F82350BFF36F8FBFF34F8F013309
:108FD000192BECD1E30706D5FFF7C0FF00210122D2
:108FE000084600F09FFD14F4006FA04D08D09D4B83
:108FF000D3F8A8369BB2A5F8D230012385F8D73034
:10900000A7021BD5974BD3F81435DE0502D50820EF
:10901000FFF7DAFD95F8D7305BB1B5F8D220002321
:10902000012185F8D73092B200911846882100F0CE
:10903000A2FD01220321002000F064FD600217D58B
:10904000884FD7F8006406F44073F105C7F8003480
:1090500007D501220421002000F054FD0123C7F8A8
:109060002C35B20504D501220521002000F04AFD6F
:1090700023022BD57B4BD3F88014C9B28DF808108E
:10908000D3F88424D2B28DF80920D3F888048DF85F
:109090000A00D3F88C048DF80B00D3F890048DF8F7
:1090A0000C00D3F894048DF80D00D3F898048DF8D3
:1090B0000E00D3F89C348DF80F304F0601D1052AED
:1090C00004D0012202A9002000F03FFD684B23409C
:1090D0005BB195F8D830002B40F09C804FF0E02336
:1090E000D3F8F03DDE0700D500BE604FDFF874A175
:1090F000DFF88491DFF884B1B846002606F10C034E
:1091000024FA03F3D807F1B21FD5142303FB06A3F7
:10911000082ED3F80837DBB200F08480B8F80820B6
:109120009A427FD1182303FB0653B8F80420DB884A
:109130009BB29A4276D941B995F8D830002B6DD0C0
:1091400001224946584600F02BFD0136092E08F150
:109150001808D3D1474B2340002B58D0414BD3F8AC
:109160006C84C3F86C84BFF36F8FBFF34F8F14F41C
:10917000806407D0D3F88044D3F880341906C4F350
:10918000C0145ED54FF0000ADFF8E09000264FF0E3
:10919000180B28FA06F3DA07F0B201D4AEB9A4B17D
:1091A000304B142202FB06330BFB0652D3F8041695
:1091B000538A11FA83F39BB25382538AB9F8101081
:1091C0009BB2994240D9FFF73BFD0136082E09F1C9
:1091D0001809DED1002418264FF0010904F110030C
:1091E00028FA03F3DB07E0B203D45CB9BAF1000F4D
:1091F00008D006FB0452B988D3889BB299422ED975
:10920000FFF7E2FC0134082C07F11807E6D105B09E
:10921000BDE8F08F002385F8D83066E74846FFF7B1
:1092200069FD92E7182303FB0653DA88A8F80420A7
:10923000DA8801230093002392B2184600F09BFCC9
:1092400083E74FF0010A9FE7528A0123009300232E
:1092500040F0800192B2184600F08DFCB5E782F82C
:109260000A90CFE7007002400071024074B3002002
:10927000FCFB1F00000400014C700240F58C0F0045
:10928000012813B5044600F0BF80022855D00028FD
:1092900051D1764BD3F80025002A4CD14FF400620F
:1092A000C3F80024BFF36F8FBFF34F8FFFF722FC8B
:1092B00060B16F4BD3F8001C032269BB49F27531D2
:1092C000C3F8001CC3F8142DC3F8001C4FF08053E2
:1092D000D3F83031082B0CD1654BD3F8001CC022D9
:1092E000E9B949F27531C3F8001CC3F8142CC3F86E
:1092F000001C5E4B0124C3F80045BFF36F8FBFF322
:109300004F8FFFF7DBFCB0B9FFF7C0FC50B102B0E4
:10931000BDE81040FFF7FEBBC3F8142DD6E7C3F835
:10932000142CE6E74FF08043C3F80001D3F8002186
:109330000192019A1C6002B010BD4C4CD4F8043567
:109340001BB1FFF7BBFC0028F5D1D4F800341B0596
:10935000FBD54FF40063C4F80034BFF36F8FBFF345
:109360004F8F4FF08053D3F83031082B0CD1404B46
:10937000D3F8001C00293FD149F27532C3F8002C04
:10938000C3F8141CC3F8002CFFF7B4FB58B1384BDA
:10939000D3F8001CA1BB49F27532C3F8002CC3F806
:1093A000141DC3F8002C4FF08053D3F83031082B34
:1093B0002E4B0AD140F2E372C3F800284022C3F8D2
:1093C0000428BFF36F8FBFF34F8F80222949C3F862
:1093D0001C25C3F80413284BC3F884215A60FFF7F7
:1093E0006DFC0028FBD0214B0122C3F80425BFF3FC
:1093F0006F8FBFF34F8F9EE70022C3F8142CC3E793
:109400000022C3F8142DCEE7184BD3F80025002A0C
:1094100091D00022C3F80425BFF36F8FBFF34F8FA5
:1094200015498020C1F88400D3F80013C3F808134D
:10943000C3F80025BFF36F8FBFF34F8FFFF726FCF4
:1094400078B1FFF769FB0D4B5A68C2F30802003A86
:1094500018BF01220221002002B0BDE8104000F038
:1094600051BB4FF080435C60EDE700BF00700240ED
:1094700000E006400514800100E100E000ED00E09E
:109480000A4492B28A4202D38389934202D2438928
:109490001A4492B21046704782888A4210B504D8A6
:1094A00084898B1A9BB29C4203D243891A44891A3D
:1094B0008BB2038210BD930813B501EB83030446FE
:1094C00099420BD112F0030206D0002301A80193A8
:1094D00001F0FCFD019B236002B010BD51F8040BAC
:1094E0002060EDE72DE9F04385B08846BDF83050A7
:1094F000AB42A3EB0509194638BF43891FFA89F926
:109500003CBFA9EB03031FFA83F983884B45074649
:10951000144605D2FFF7C0FF058AB0F80490ADB23B
:10952000B9F1000F1FD0A14528BFA146BC88AC42AD
:109530001DD9FA883B68661B02FB0531A9EB0404C0
:109540009DF834302C44B0B214FB02F416FB02F642
:10955000012BB6B2A4B216D081450BD802FB09F29A
:10956000404601F0B3FD484605B0BDE8F0832D1B31
:10957000ADB2DCE73246404601F0A8FD396822462C
:1095800008EB0600EDE7814506D819FB02F292B21E
:109590004046FFF790FFE6E726F0030295B22A4621
:1095A00040460191FFF787FF16F0030628D0019986
:1095B0004A19C6F1040189B2A1424FF0000328BF45
:1095C0002146641A039303ABA4B295191846AA4224
:1095D0000CD13B68013E821919448B420BD1039B8D
:1095E000C8F80030002CBED02246D1E712F801CBDB
:1095F00003F801CBEBE713F8010B02F8010FECE7DE
:109600003968EFE713B5930800EB8303984209D15B
:1096100012F0030204D00B68019301A901F056FD7A
:1096200002B010BD0C6840F8044BEFE770B59A42E9
:10963000A2EB03041D4638BF4389A4B238BFE41A25
:10964000838838BFA4B2A3420E46114602D2FFF768
:1096500023FF848874B18388AB4208D9C28801682B
:10966000304602FB051101F031FD012070BDED1AFD
:10967000ADB2F1E72046F9E72DE9F0430746B0F82F
:109680000E908588048A1646C288007A85B01FFA33
:1096900089F9A4B288BBA145A9EB040038BF7C8935
:1096A00080B23CBF001B80B2281A80B2864228BF1D
:1096B00006464C46AC4228D2A5EB0408751B386818
:1096C00025441FFA88FC15FB02F518FB02F8012B54
:1096D0001FFA88F8ADB202FB040022D0664517D805
:1096E000724301F0F3FC324649463846FFF7C8FEA4
:1096F000F881304605B0BDE8F083AE4221BF761B4D
:1097000002FB0611A1462E46D3E7641BA4B2D1E7A3
:109710004246009101F0DAFC009938682A4641443B
:10972000DFE7664505D816FB02F292B2FFF76AFF43
:10973000D9E728F00304A4B22246CDE90001FFF7DF
:1097400061FF18F00308019929D0C8F104039BB206
:10975000AB4200980A68039228BF2B46ED1A013CE1
:109760000DF10C0C0444ADB24046624601381CF8C1
:1097700001EB04F801EF10F0FF00F7D138689044D6
:1097800008EB0304421EA04504D11844002DAAD0C2
:109790002A46CBE718F801CB02F801CFF3E7386887
:1097A000F4E7B2F5004F10D882805200C38092B225
:1097B0009DF800300372531E838152420023C381FF
:1097C0000160428103820120704700207047C189F7
:1097D000028A89B292B29142A1EB020338BF428958
:1097E00080889BB23CBF9B1A9BB2984228BF184608
:1097F0007047C289038A92B29BB2D31A5842584129
:10980000704710B5C189028A848892B289B29142A8
:10981000A1EB020338BF42899BB23CBF9B1A9BB2AB
:10982000E01A80B210BD38B5C289038A04469BB2E3
:1098300092B2FFF7FBFE218A054682B289B220462A
:10984000FFF71EFE2082284638BD73B5C389058AFE
:109850000026ADB20446CDE900569BB2FFF742FEAA
:10986000218A0546024689B22046FFF709FE20827A
:10987000284602B070BD38B5C589028AADB292B231
:10988000AA42A5EB020388BF42899BB288BF9B1AFC
:10989000828888BF9BB29A42044614D1007A90B95C
:1098A00038BD801A80B29042FBD2E288236802FB66
:1098B000003001F00BFC012229462046FFF7E0FDB5
:1098C000E0810120ECE72846EDE712B10023FFF725
:1098D000D3BE104670470023C381038283885B0098
:1098E0009BB25A1E5B428281438101207047017204
:1098F000012070470B4B63B10B4B1B78834206D999
:109900000A4B1B6800EB400003EBC0007047C01A15
:10991000C0B2012803D8064B00EB4000F4E700205A
:10992000704700BF0000000054B4002050B4002075
:1099300050B60F0070B53722002105460E480F4E75
:10994000FAF706FD1022FF210D48FAF701FD122259
:10995000FF210C48FAF7FCFC00F074FD00242046BF
:10996000FFF7C8FF43682846984733780134E4B2CC
:109970000133A342F3DA70BD55B4002054B4002083
:1099800058B4002068B4002037B50C460546C868B6
:10999000019200F05FFDE368019A0021284603B0C0
:1099A000BDE83040184773B5054614463AB9037808
:1099B000012B04D110460191FFF7B4F90199281D3C
:1099C000FFF759FF06462CB92B78012B02D1204610
:1099D000FFF7A2F936B94FF0E023D3F8F03DDB07EB
:1099E00000D500BE02B070BD024B5878003818BFD9
:1099F0000120704755B40020024B1878C0F3800056
:109A0000704700BF55B40020014B1878704700BF65
:109A10008CB40020F8B5164E3178054629BB154C9C
:109A200015483722FAF794FC201DFFF754FF134B1B
:109A30001C60134B23B11348AFF30080124B186026
:109A4000104F00242046FFF755FF036898473B78E6
:109A50000134E4B20133A342F4DA2846FFF75AF99D
:109A60002846FFF759F9012333700120F8BD00BFE4
:109A70008CB40020A086002055B4002090B40020B3
:109A80000000000054B4002050B4002010B443780B
:109A9000023B0A46032B15D8DFE803F0022C1B23F8
:109AA000164B1978CC0725D519786FF3000119707A
:109AB000197800246FF3410119705C70197864F310
:109AC000820119700E4B5DF8044B01461868FFF7D0
:109AD0006ABF0A4B1978C9070CD5197841F00401FF
:109AE000EFE706490B78DB0704D50B786FF38203A9
:109AF0000B70E7E75DF8044B704700BF55B40020DA
:109B000090B400201FB50023CDE901338DF8040087
:109B10008DF8051001A811460393FFF7B7FF05B0B4
:109B20005DF804FB1FB50023CDE9013303938DF8E5
:109B3000040001238DF8081001A811468DF80530A6
:109B4000FFF7A4FF05B05DF804FB1FB51446002322
:109B50000822CDE9013303938DF8040006230DEBB1
:109B600002008DF8053001F0B1FA214601A8FFF797
:109B70008DFF04B010BD1FB50024CDE901448DF860
:109B8000040007208DF805008DF8081001A89DF845
:109B9000181003928DF80930FFF778FF04B010BD5C
:109BA0001FB54FF40063CDE90130039101A81146C0
:109BB000FFF76CFF05B05DF804FB00004A790B79F4
:109BC00002F0070243EA02238A7802F07F02082AA1
:109BD00008D94FF0E023D3F8F03DDB0700D500BEF5
:109BE00000207047CA7802F00302022A0ED0032A2E
:109BF00018D0012AF4D10F4A9278022A40F2FF329B
:109C000008BF4FF480629A4207D2E2E7094A92788D
:109C1000022A04D1B3F5007FDBD1FFF79DB8402BBA
:109C2000FBD9D6E7034A9278022A0CBF4FF4806230
:109C30004022E8E755B400202DE9F047DDE9085659
:109C400081460C4690469A460027B84501DC012023
:109C50000EE06378052B04D1E37803F0030353454A
:109C60000AD04FF0E023D3F8F03DDA0702D4002009
:109C7000BDE8F08700BEFAE721464846FFF79EFFA1
:109C800038B94FF0E023D3F8F03DDB07EFD500BE45
:109C9000EEE7A378DA0914BF33702B70237801370D
:109CA0001C44D2E70B4B01F07F0203EB420303EBB2
:109CB000D1112031487910F0010008D14B795B07B0
:109CC00006D44B7943F004034B7101207047002008
:109CD000704700BF55B400200B4B01F07F0203EB2F
:109CE000420303EBD11120314B7913F0010209D16A
:109CF0004B79C3F380005B0705D54B7962F3820390
:109D00004B7170470020704755B4002070B5164C59
:109D100001F07F0604EB460404EBD114203465798E
:109D2000ED0709D54FF0E023D3F8F03DDA0701D471
:109D3000002070BD00BEFBE7657945F00105657147
:109D4000FFF790F80028F4D1637960F300036371A2
:109D5000637960F3820363714FF0E023D3F8F03D41
:109D6000DB07E5D500BEE4E755B4002010B50C468E
:109D7000FFF7C6F8094B04F07F0203EB420303EB45
:109D8000D41191F8253043F0020381F8253091F881
:109D9000253043F0010381F8253010BD55B4002073
:109DA00010B50C46FFF7C2F8094B04F07F0203EB35
:109DB000420303EBD41191F825306FF3410381F88E
:109DC000253091F825306FF3000381F8253010BD60
:109DD00055B40020054B01F07F0203EB420303EB77
:109DE000D11191F82500C0F34000704755B4002010
:109DF0002DE9F04F87B001F038F9002800F05E82BD
:109E0000DFF8CC92AD4B1D682B78012B02D10020DE
:109E1000FEF788FF03A9281DFFF705FD2B78012B0E
:109E2000044602D10020FEF777FF002C00F04682A6
:109E30009DF80D30013B072B00F27582DFE813F02F
:109E4000080011006A02490254021B0015026C024C
:109E50009DF80C00FFF76EFD994B9DF810209A704D
:109E6000D0E79DF80C00FFF765FD964B002BC9D09D
:109E7000FEF70EFCC6E7924C9DF80C50237843F099
:109E80000103237094F825306FF3000384F8253024
:109E900094F825306FF3820384F8253094F8263047
:109EA0006FF3000384F8263094F826306FF38203B2
:109EB00084F82630002000F0CDFA9DF8106006F0FE
:109EC0006002602A08D14FF0E023D3F8F03DD907B3
:109ED00040F1808100BE7DE1402A0DD17A48002802
:109EE00000F0788100F0B6FA04AA00212846AFF30A
:109EF0000080002886D16DE106F01F06012E00F0DB
:109F00004B81022E00F07181002EDCD1202A11D16C
:109F10009DF814300F2B00F25D812344D878FFF7B1
:109F2000E9FC0146002800F0558104AA2846FFF705
:109F30002BFDDEE7002AC6D19DF81130092BC2D8CF
:109F400001A252F823F000BF83A10F0073A10F00FC
:109F5000C79E0F0061A10F00C79E0F00719F0F00E9
:109F6000EBA00F00C79E0F008B9F0F00A19F0F005B
:109F700004A800F075FA9DF812102846FEF7DAFEE4
:109F8000237843F0020323703CE763788DF80A30AE
:109F900001230DF10A0204A9284600F01FFA31E757
:109FA00063789DF812A06BBBBAF1000F2AD00AF1BA
:109FB000FF30C0B2FEF77CFA10B14378022B08D014
:109FC0004FF0E023D3F8F03DDC077FF57CAF00BE17
:109FD00079E7C379C3F38012C3F340131B0143EA4B
:109FE0004213227822F03002134323704388C318AF
:109FF00000F109010093009B8B420AD8334B0BB14F
:10A00000FEF743FB84F801A004A9284600F0D4F928
:10A01000F8E64B780B2B03BF0B780F46C9180027C7
:10A020004B78042BCCD1009BA3EB01081FFA88F8D6
:10A030004FF0000B99F800305FFA8BF60133B34212
:10A04000BEDB3046FFF756FC424683680191284646
:10A0500098470BF1010B01990028EBD00828AFD9E4
:10A060008045ADD38B782344DA78FF2AA8D1DE70FF
:10A07000D7B90A4600235778052F08D192F802C0B5
:10A080000CF07F0704EB470707EBDC17FE7417782B
:10A090003B449BB298423A44EDD899F800300133E2
:10A0A0009E420144A7DD8BE7BA788B789A4287D12C
:10A0B0003A794B799A4283D1012312E090B400207F
:10A0C00055B4002091860F00000000008B860F0021
:10A0D00054B4002091F802C0E21862440133D670F3
:10A0E000DBB2FA789A42F5D8C3E7BDF812309DF892
:10A0F00012001B0A013B0E2B6CD8DFE803F0081995
:10A100001F6B6B286B6B6B6B6B6B6B6B1100FEF7D4
:10A11000CBF91223024604A9284600F05FF9E8E6CD
:10A12000854B002B56D0AFF3008002465388F2E7F0
:10A13000FEF7BEF902460028F8D1C4E6BDF81410B7
:10A14000FEF712FA0246002844D01378E3E77B4B6F
:10A15000002B3FD0AFF3008002460028F5D1B2E6D5
:10A16000BDF81230012B35D1237843F0080323705A
:10A170004AE7BDF81230012B2CD123786FF3C303CB
:10A18000F5E72378C3F340129B0803F0020313435F
:10A19000ADF80A300223FCE69DF814300F2B19D8D5
:10A1A0002344D878FFF7A6FB014698B104AA2846B5
:10A1B000FFF7EAFB00287FF425AE9DF8103013F07E
:10A1C000600307D19DF811200A2A3FF4DFAE0B2A65
:10A1D0003FF41AAF9DF80C000021FEF791FE9DF8A8
:10A1E0000C008021FEF78CFE0CE69DF8141001F0A7
:10A1F0007F03082B3FF667AE04EB430303EBD11359
:10A20000D87CFFF777FB074622B10028E2D004AAEA
:10A2100001468BE69DF8113003F0FD02012A08D0BB
:10A22000002B7FF450AE2846FFF7D4FDADF80A00AE
:10A23000B0E7BDF8122022B9012B284612D1FFF752
:10A24000AFFD002F3FF4DEAD04AA39462846FFF7E4
:10A250009BFB002000F0FEF894F82630D8073FF56D
:10A26000D1ADD1E6FFF782FDEBE79DF81010344B3E
:10A2700001F07F0403EB440303EBD11393F82500B3
:10A280006FF3000083F8250093F825006FF3820038
:10A2900083F825003CB9059B9DF811209DF80C0022
:10A2A00000F0ECF8AEE5D87CFFF724FB48B94FF09E
:10A2B000E023D3F8F03DDA0700D500BE07B0BDE8D3
:10A2C000F08F0469059B9DF811209DF80C00A047B4
:10A2D00098E51C4B002B3FF495AD194B1878C0F353
:10A2E000C000AFF300808DE5174B002B3FF48AAD23
:10A2F000AFF3008086E5FFF7FDFA436913B19DF8DF
:10A300000C009847013499F80030E0B201338342E1
:10A31000F1DA77E50024F6E7049B002B3FF472ADF9
:10A32000059898476EE54FF0E023D3F8F03DDB0742
:10A330007FF568AD00BE65E500000000000000008C
:10A3400055B40020000000000000000037B514499B
:10A350000446CA89888991F90050831A9BB2402B20
:10A3600028BF4023002D10DA904214D01A46896885
:10A370000C48019300F0AAFE0A4A019B8021204666
:10A3800003B0BDE83040FFF7C1BC90424FF0000180
:10A3900003D10022F3E78021FBE7024AEFE700BF89
:10A3A00054B5002068B50020C94300231A4601F0C7
:10A3B0008001FFF7ABBC000030B4074C05460B46EC
:10A3C00008684968224603C20022C4E902222846DE
:10A3D000197830BCFFF7E8BF54B50020F8B5184E27
:10A3E0000C46054608684968B260374603C7002135
:10A3F000F181E1888B4228BF0B46B381E18889B1A6
:10A4000053B14AB94FF0E023D3F8F03DDA0701D455
:10A410000020F8BD00BEFBE72846FFF797FF30B1EC
:10A420000120F6E721782846FFF7BEFFF7E74FF057
:10A43000E023D3F8F03DDB07EAD500BEE9E700BF33
:10A4400054B50020024814220021F9F781BF00BF53
:10A4500054B50020014B1861704700BF54B500206F
:10A4600010B50246044C00685168234603C300231C
:10A47000C4E9023310BD00BF54B5002070B52D4CA7
:10A480001E462378C909B1EBD31F054618D04EB13B
:10A490004FF0E023D3F8F03DDA0701D4002070BD7F
:10A4A00000BEFBE7244B13B12146AFF300802369C4
:10A4B0000BB90120F3E71F4A022128469847F8E725
:10A4C00094F90030A068002B05DB0028E6D01B497A
:10A4D000324600F0FBFDA268E38932443344A260B7
:10A4E000E2889BB29A42E38101D03F2E1ED82369B5
:10A4F0006BB921782846FFF757FF0028D9D14FF0D4
:10A50000E023D3F8F03DDB07C8D500BEC7E7012143
:10A51000084A2846984701460028EAD12846FEF70F
:10A52000EFFC80212846FEF7EBFCC2E72846FFF748
:10A530000DFFE2E754B500200000000068B50020E0
:10A5400070B500F1100504462846FFF75AF93F2878
:10A5500017D9E1780020FFF7A5FB90B12846FFF757
:10A5600050F93F28E17807D904F638024023BDE8C6
:10A5700070400020FFF7CABBBDE870400020FFF725
:10A58000ABBB70BD08B5044B40F6B80202FB00300F
:10A590001030FFF71CF908BDA8B5002040F6B8033D
:10A5A00070B503FB00F4064E04F1100092B2304483
:10A5B000FFF74BF905463019FFF7C2FF284670BD7B
:10A5C000A8B500202DE9F0410446FFF70DFA10B9B7
:10A5D0000020BDE8F081FFF70FFA06460028F7D10A
:10A5E00040F6B803164D5C4304F12408A8444046E5
:10A5F000FFF7EDF80028EBD02F193046B978FFF7B8
:10A6000051FB0028E4D004F6780425442946402272
:10A610004046FFF71AF9B978044668B103462A465E
:10A620003046FFF773FB48B94FF0E023D3F8F03D15
:10A63000DB07CDD500BECCE7FFF74EFB2046C8E7D1
:10A64000A8B5002070B50B4C40F6B80303FB0044DE
:10A65000243492B205462046FFF737F906462046D5
:10A66000FFF7B5F83F2802D92846FFF7ABFF304681
:10A6700070BD00BFA8B5002037B5144C40F6B80235
:10A6800000212046F9F764FEFF234FF442420125E2
:10A690006371E2800023082263812273009304F136
:10A6A00038012B464FF4806204F110002581FFF73A
:10A6B00078F800952B464FF4806204F5876104F129
:10A6C0002400FFF76EF803B030BD00BFA8B500202E
:10A6D00010B50A4C002105222046F9F739FE04F195
:10A6E00010002434FFF7F7F82046FFF7F4F820466F
:10A6F0000121BDE81040FFF7FAB800BFA8B500205F
:10A70000F7B54B79022B064603D00025284603B047
:10A71000F0BD8B79022BF8D1204FBB787BBB8B78B7
:10A720003B700B780925CC1803E023781D44ADB2AB
:10A730001C446378242B1BD19542F6D96378042BF3
:10A7400012D163790A2B0FD1154B2778019301336E
:10A75000009302231A46E1193046FFF76DFA70B1F3
:10A760000E3517FA85F5ADB20C48FFF7E9FECDE7D7
:10A77000052BE3D121463046FFF720FA38B94FF0D8
:10A78000E023D3F8F03DDB07BFD500BEBDE7A378DB
:10A790007B7023781D44ADB21C44CFE7A8B50020E0
:10A7A000AAB5002070B50B461146127802F060027F
:10A7B000202A45D1234E8A883478944240D14A7861
:10A7C000203A032A3CD8DFE802F00213162F2BB9F7
:10A7D0001D4A0723FFF702FE012070BD022BFBD1AB
:10A7E0001A4B002BF8D018490020AFF30080F3E794
:10A7F000002BF1D1ECE713B9FFF7DEFDECE7022BFC
:10A80000EAD14C881248347104F0010585F0010149
:10A81000FFF76DF80F4B002BDED0C4F34002294642
:10A820000020AFF30080D7E7002BE5D0022BD3D177
:10A83000094B002BD0D049880020AFF30080CBE734
:10A840000020CAE7A8B50020AEB500200000000037
:10A85000CCB5002000000000000000002DE9F34707
:10A86000374D1C46EB788B4207460E4607D0AB7837
:10A870008B4258D1AB78B34232D001245CE0A2B213
:10A8800005F6380105F11000FFF71FF82D4B2BB925
:10A890002D4BEBB92A48FFF753FEEBE76B79FF2B03
:10A8A000F6D005F638094FF0000805F1100AA0456A
:10A8B000EED019F8013B6A799A4206D15046FEF76C
:10A8C00098FF10B96979AFF3008008F10108EEE74D
:10A8D0001E48FEF78EFF0028DCD1FDF74FFAD9E7BE
:10A8E0001B4B13B10020AFF300800020FFF76AFE7E
:10A8F0000028C2D11748FEF76AFF0028BDD1002CFE
:10A90000BBD014F03F03B8D1A97801933846FFF7C4
:10A91000C9F9019B04460028AFD0A9781A463846E9
:10A92000FFF7F4F908E04FF0E023D3F8F04D14F00E
:10A93000010401D000BE0024204602B0BDE8F0872B
:10A94000A8B50020000000007D7D0F00B8B50020F4
:10A9500000000000CCB5002073B5284CE28A52BA42
:10A9600092B205463AB94FF0E023D3F8F03DDB0749
:10A9700039D500BE37E0A368B3FBF2F291B20029EB
:10A98000F1D0A06BD4F811101B1AB3F5805F28BF6B
:10A990004FF4805392B209BAB0FBF2F6009302FB77
:10A9A0001602174B607B3144FDF7E8FC031E94F858
:10A9B0002E1012DAA368A26B9B1AA362012384F8FB
:10A9C0002C3042F20503A3872846002384F83E304A
:10A9D00002B0BDE87040FFF7C9B906D100931A462E
:10A9E0002846FFF7C8F802B070BD054A9BB228465A
:10A9F000FFF78CF90028F6D1B5E700BF60CE002044
:10AA000060BE002038B5184B184C0546A3B1607BDA
:10AA1000AFF3008080B9A368A362012384F82C30CF
:10AA200042F2077384F83E0094F82F10A38728465B
:10AA3000BDE83840FFF79AB9A26BA36894F82F10CD
:10AA40009B1AB3F5805F28BF4FF48053084A9BB22E
:10AA50002846FFF75BF930B94FF0E023D3F8F03D1B
:10AA6000DB0700D500BE38BD0000000060CE00202E
:10AA700060BE0020044880F83C1080F83D2080F83B
:10AA80003E300120704700BF60CE002002484022C7
:10AA90000021F9F75DBC00BF60CE002002484022D3
:10AAA0000021F9F755BC00BF60CE002073B54B798B
:10AAB000082B054602D0002002B070BD8B79062B12
:10AAC000F9D1CB79502BF6D1162A07D84FF0E023D5
:10AAD000D3F8F03DD907EED500BEECE7144C8B78E7
:10AAE00084F82D3004F12E030E78019304F12F0326
:10AAF000009302231A463144FFF79EF838B94FF00D
:10AB0000E023D3F8F03DDA07D5D500BED4E794F8BA
:10AB10002F101F2322462846FFF7F8F830B94FF0D0
:10AB2000E023D3F8F03DDB0700D500BE1720C3E7D4
:10AB300060CE002037B50B460546144661B9127841
:10AB400002F06002202A08D16278FE2A08D0FF2A8B
:10AB500003D12146FFF730FC0123184603B030BD76
:10AB600001238DF807300A4B1BB1AFF300808DF83D
:10AB700007009DF80730002BEFD0013B8DF8073020
:10AB80000DF10702012321462846FFF727FCE3E7E2
:10AB9000000000002DE9F041AA4C94F83080B8F193
:10ABA000010F90B005461E4600F09681B8F1030FE4
:10ABB00000F00082B8F1000F28D194F82F308B42BA
:10ABC00001D001200EE02AB91F2E03D120689E4B30
:10ABD00098420AD04FF0E023D3F8F03DD90700D5D2
:10ABE00000BE002010B0BDE8F081984B236263687E
:10ABF000C4E90932012384F83030A368C4E90D3276
:10AC0000E27B282A12D12846FFF7A6FE94F83030BE
:10AC1000022BD6D194F82E102846FFF7DBF8002837
:10AC200000F0F181002300931A46BDE12A2A03D1E6
:10AC30002846FFF7E7FEE9E78BB1207BC0090ED17C
:10AC4000834A9BB22846FFF761F80028DED14FF017
:10AC5000E023D3F8F03DDB07C3D500BEC2E7252AC9
:10AC6000667B09D8192A22D8032A00F0F980122A13
:10AC700000F0AC80002A39D094F83C30002B00F072
:10AC8000158100236363012384F82C30022384F8A8
:10AC9000303094F83C30002B00F01281A368002B78
:10ACA000B4D094F82E102846FFF760F8AEE71A3AB1
:10ACB0000B2AE1D801A353F822F000BF13AE0F0016
:10ACC0000FAD0F0079AC0F0079AC0F0079AC0F001D
:10ACD00079AC0F0079AC0F0079AC0F0079AC0F00A4
:10ACE00087AD0F0079AC0F002BAD0F003046FDF79C
:10ACF00031FB002840F0EA8094F83C30002BBBD1B7
:10AD000040F20243A387002384F83E30B4E7514B5E
:10AD1000002B00F0DB80E17C3046C1F3400301F002
:10AD200001020909FDF7BEFBE3E70DF1160206A9D2
:10AD30003046FDF7AFFB069BBDF8162003B13AB9CC
:10AD400094F83C30002B97D140F20242A287DBE717
:10AD500012BA013B1BBA08923D480793082207A983
:10AD600000F0B4F908200022606384F82C20002849
:10AD700000F0AE80A36898423FF62CAF344A94F8B6
:10AD80002E1083B25EE70023CDE907330993082331
:10AD90008DF81F300DF11602022306A930468DF8FA
:10ADA0002430FDF777FB069A002AC9D0BDF816308B
:10ADB000002BC5D012BA08925BBA2548ADF82630F0
:10ADC0000C2207A900F082F90C20CCE724220021F4
:10ADD00007A8F9F7BDFA204B07930822202109A8FC
:10ADE000F9F7B6FA102220210BA8F9F7B1FA0422DC
:10ADF00020210FA8F9F7ACFA0FAB0BAA09A930462E
:10AE0000FDF774FA1248242207A900F05FF9242004
:10AE1000A9E703230793114B8BB13046AFF30080B2
:10AE20009DF81E3080F0010060F3C713042208482B
:10AE30008DF81E3007A900F049F9042093E701209E
:10AE4000EEE700BF60CE00205553424355534253B6
:10AE500060BE0020A5840F000080020200000000F8
:10AE60001222002107A8F9F773FAF02394F83C2086
:10AE70008DF81C300A238DF823304FF0000362F365
:10AE800003038DF81E3094F83D308DF82830694862
:10AE900094F83E308DF82930122207A900F016F9F7
:10AEA0000023A38784F83E3012205CE7A38E614A1A
:10AEB0006149607BFDF750FA0028FFF6E2AE52E7E9
:10AEC00042F20502A28784F83E30E7E600204AE716
:10AED000022384F8303099E6277BFF0915D1E37B04
:10AEE000607B2A2B27D0A38E524A04F10F01FDF775
:10AEF00033FA0028BFBF42F2050384F82C80A387F1
:10AF000084F83E70A8BF84F82C70A36B626B334446
:10AF10009342A363DCD2E37B282B3FF474AE2A2B4D
:10AF20003FF486AE4FF0E023D3F8F03DDA077FF52B
:10AF30006DAE00BE6AE6B4F816C0D4F81110D4F8AD
:10AF400038E0A36800969CFA9CFC1FFA8CFC09BAB6
:10AF5000B3FBFCF39AB2374BBEFBF2FC02FB1CE2E4
:10AF60006144FDF72DFA0028324B0EDAA368A26B7C
:10AF700084F82C809B1AA362022384F8303042F2BA
:10AF80000503A38784F83E7040E68642BDDD321A91
:10AF900040B1A16B03920144A1631918184600F057
:10AFA000A3F8039A0023009394F82F102846FEF785
:10AFB000E2FD06E694F82E308B427FF427AE0D2E8C
:10AFC0007FF424AEE37B282B09D02A2B14D01B4B13
:10AFD00053B1607B04F10F01AFF3008004E0184B24
:10AFE00013B1607BAFF30080002384F83030154A42
:10AFF00094F82F101F2325E6134B002BF4D0607B11
:10B00000FDF7F6F9F0E794F82F102846FEF7E2FE78
:10B0100000287FF407AE032384F830300B4A94F8FD
:10B020002E100D232846FEF771FE00287FF4C9ADCF
:10B030000DE600BF60BE00206FCE002000000000C3
:10B040000000000060CE0020F1830F0080CE0020C1
:10B0500008B50020FEF7DEFC30B94FF0E023D3F84E
:10B06000F03DDB0700D500BE08BDFEF7CDBC0000FB
:10B070000649074A074B9B1A03DD043BC858D050CA
:10B08000FBDCFAF71DF8F9F7DFF80000B4B60F00A3
:10B0900000800020C4860020FEE7FEE7FEE7FEE712
:10B0A000FEE7FEE7FEE7FEE7FEE7FEE710B5013943
:10B0B0000244904201D1002005E0037811F8014FCD
:10B0C000A34201D0181B10BD0130F2E70A4491429F
:10B0D00000F1FF3300D1704710B511F8014B03F8B0
:10B0E000014F9142F9D110BD884210B501EB020425
:10B0F00002D98442234607D8431EA14208D011F842
:10B10000012B03F8012FF8E7024401468A4200D1DF
:10B1100010BD13F8014D02F8014DF7E710B50246D6
:10B12000147813460132002CFAD1013B11F8012B9F
:10B1300003F8012F002AF9D110BD034613F8012BA3
:10B14000002AFBD1181A013870470000F0B51F4CD7
:10B150008BB005460B466E4604F1200C20686168F2
:10B16000374603C7083464453E46F7D12179397123
:10B17000911E2068386022294FF0000104D919700F
:10B180000B4618460BB0F0BD581E8446B5FBF2F7CF
:10B190000DF1280E02FB175676440C4616F8286C63
:10B1A0000CF8016F2E46B24201F101013D46EDD986
:10B1B00000225A541919A51AAA42E2DA10F8015FBE
:10B1C0000E780670013201F80159F4E780B60F00DD
:10B1D000FFF7BCBF53B94AB9002908BF00281CBFFC
:10B1E0004FF0FF314FF0FF3000F04AB9ADF1080CDD
:10B1F0006DE904CE00F006F8DDF804E0DDE9022395
:10B2000004B070472DE9F0478C468E46089E1546DF
:10B2100004461946002B40F0AF807245B2FA82F71F
:10B2200043D94FB1C7F120030EFA07FC20FA03F30C
:10B23000BD4043EA0C0CBC404FEA154EA8B2BCFB23
:10B24000FEF8230C0EFB18CC08FB00F943EA0C4374
:10B25000994528D9EB1808F1FF3204D2994502D953
:10B26000A8F102022B44A3EB0903B3FBFEFCA4B23A
:10B270000EFB1C330CFB00F044EA0344A04279D9D6
:10B280002C190CF1FF3304D2A04202D9ACF1020315
:10B290002C44241A43EA02401EB1FC4000233460CF
:10B2A0007360BDE8F0874246DDE702B9FFDEE7B92B
:10B2B000AEEB020301214FEA154EA8B2B3FBFEFC30
:10B2C000220C0EFB1C330CFB00F842EA03439845AA
:10B2D0004ED9EB180CF1FF3204D2984502D9ACF1EB
:10B2E00002022B44A3EB0803BFE7C7F120012EFAAB
:10B2F00001F3BD400EFA07FE20FA01F141EA0E010A
:10B300004FEA154EAAB2B3FBFEFC0EFB1C300B0C31
:10B310000CFB02F843EA0043984504FA07F423D9EA
:10B32000EB180CF1FF3004D2984502D9ACF10200C1
:10B330002B44A3EB0803B3FBFEFC0CFB02F80EFB53
:10B340001C328BB243EA024398450FD9EB180CF13B
:10B35000FF3104D2984502D9ACF102012B44A3EB92
:10B36000080341EA0041A6E76046E2E76146F6E7E6
:10B370006246B7E763468CE7734505D90EB1C6E967
:10B38000000E002108468CE7B3FA83F787B97345AE
:10B3900001D382420AD8841A6EEB030301209C4633
:10B3A000002E6AD0C6E9004C00217AE73846F7E75C
:10B3B000C7F1200CBB4022FA0CF41C4320FA0CF11C
:10B3C0002EFA0CF30EFA07FE41EA0E014FEA144979
:10B3D00000FA07F5B3FBF9F81FFA84FE09FB1830F1
:10B3E0000B0C08FB0EFA43EA00439A4502FA07F2F7
:10B3F0003FD9E31808F1FF3004D29A4502D9A8F1E9
:10B4000002002344A3EB0A0389B2B3FBF9F809FB5A
:10B41000183308FB0EFE41EA03418E452BD9611813
:10B4200008F1FF3304D28E4502D9A8F1020321446A
:10B4300043EA0040A0FB0298A1EB0E014145CE4635
:10B44000434602D306D14D4504D2B9EB020E68EB58
:10B45000040301388EB1B5EB0E0261EB030101FA72
:10B460000CFC22FA07F34CEA0303F940C6E9003169
:10B470009AE74046C6E74346DAE7314611E700005F
:10B48000704700BFF8B500BFF8BC08BC9E467047C7
:10B49000F8B500BFF8BC08BC9E467047008000208D
:10B4A000001002000000000000000000000000008A
:10B4B0000338FDD8704700000000000000000000C5
:10B4C0000338FDD8704701000000000004990020F7
:10B4D0000338FDD870474164614446550067627285
:10B4E0006E740053636869736D00302E362E322DF2
:10B4F00031312D6766323035666364207331343004
:10B5000020362E312E310000000000000000000027
:10B510000000000000000023D1BCEA5F782315DEA4
:10B52000EF121200000000006CB000204164616660
:10B5300072756974006E52462055463200303132C1
:10B5400033343536373839414243444546006E522C
:10B55000462053657269616C000904536F66744438
:10B5600065766963653A200053002E006E6F742083
:10B57000666F756E640D0A00EB3C9055463220559F
:10B5800046322000020101000240000000F80201E2
:10B5900001000100000000000901010080002942B3
:10B5A00000420053434849534D000000000046410B
:10B5B0005431362020203C21646F637479706520FB
:10B5C00068746D6C3E0A3C68746D6C3E3C626F64DE
:10B5D000793E3C7363726970743E0A6C6F63617488
:10B5E000696F6E2E7265706C616365282268747471
:10B5F00070733A2F2F67627279616E742E636F2EAB
:10B60000756B22293B0A3C2F7363726970743E3C50
:10B610002F626F64793E3C2F68746D6C3E0A0000A7
:10B62000494E464F5F5546325458540020850020FD
:10B63000494E44455820202048544D00B6B50F00CF
:10B6400043555252454E54205546320000000000EA
:10B6500079A60F00D1A60F0001A70F00A5A70F0024
:10B660005DA80F00000000008DAA0F009DAA0F002A
:10B67000ADAA0F0035AB0F0095AB0F000000000026
:10B680003031323334353637383961626364656658
:10B690006768696A6B6C6D6E6F70717273747576C2
:0CB6A0007778797A0000000000000000BC
:08B6AC00948BFF7F01000000F8
:10B6B40000000000EC82002054830020BC830020A2
:10B6C4000000000000000000000000000000000076
:10B6D4000000000000000000000000000000000066
:10B6E4000000000000000000000000000000000056
:10B6F4000000000000000000000000000000000046
:10B704000000000000000000000000000000000035
:10B714000000000000000000000000000000000025
:10B724000000000000000000000000000000000015
:10B734000000000000000000000000000000000005
:10B7440000000000000000000000000000000000F5
:10B7540000000000000000000100000000000000E4
:10B764000E33CDAB34126DE6ECDE05000B000000A9
:10B7740000000000000000000000000000000000C5
:10B7840000000000000000000000000000000000B5
:10B7940000000000000000000000000000000000A5
:10B7A4000000000000000000000000000000000095
:10BAD4000000000000000000E0860020FFFFFFFFE0
:10BAE4007C7F00200090D003FF00FFFF32000000A5
:10BAF400617C0F00D57C0F00010902620003010084
:10BB04008032080B00020202000009040000010256
:10BB1400020004052400200105240100010424027C
:10BB24000205240600010705810308001009040129
:10BB340000020A0000000705020240000007058217
:10BB4400024000000904020002080650050705032C
:10BB5400024000000705830240000009024B000276
:10BB640001008032080B00020202000009040000F8
:10BB7400010202000405240020010524010001043F
:10BB840024020205240600010705810308001009A8
:10BB9400040100020A000000070502024000000739
:10BBA40005820240000012010002EF02014030361B
:10BBB400020000010102030159B50F00DDB40F00BA
:10BBC400E3B40F0060B300204EB50F0035B50F008D
:10BBD40055463220426F6F746C6F61646572203019
:10BBE4002E362E322D31312D676632303566636440
:10BBF400206C69622F6E726678202876322E302E81
:10BC04003029206C69622F74696E797573622028FB
:10BC1400302E31302E312D3239332D67616638653F
:10BC24003561393029206C69622F7566322028729B
:10BC3400656D6F7465732F6F726967696E2F636FBB
:10BC44006E6669677570646174652D392D6761640A
:10BC54006262386337290D0A4D6F64656C3A20536C
:10BC6400636869736D0D0A426F6172642D49443AC9
:10BC7400206E524635323834302D73636869736DE3
:10BC84000D0A446174653A204F63742032322032C5
:10BC94003032310D0A0000000000000000000000F6
:10BCA4000000000000000000000000000000000090
:10BCB4000000000000000000000000000000000080
:10BCC4000000000000000000000000000000000070
:10BCD4000000000000000000000000000000000060
:10BCE4000000000000000000000000000000000050
:10BCF4000000000000000000000000000000000040
:10BD0400000000000000000000000000000000002F
:10BD1400000000000000000000000000000000001F
:10BD2400000000000000000000000000000000000F
:10BD340000000000000000000000000000000000FF
:10BD440000000000000000000000000000000000EF
:10BD54000100000094B4002010000C000000E0FF7B
:10BD64001F0000000000000079440F0025420F006E
:04BD740001420F0079
:10D80000F1109E1E797A22200500000064000000BD
:10D81000CC00000000001000CD000000000004005B
:10D82000D000000002003036D10000004028A5AD35
:10D83000D2000000200000000000000000000000F6
:10D8400000000000000000000000000000000000D8
:08D850000000000000000000D0
:020000020000FC
:020000041000EA
:0410140000400F0089
:0410180000E00F00E5
:04000003F000B071E8
:00000001FF
